{
  "contractName": "PICNICLocker",
  "abi": [
    {
      "anonymous": false,
      "inputs": [
        {
          "indexed": false,
          "internalType": "uint256",
          "name": "id",
          "type": "uint256"
        },
        {
          "indexed": false,
          "internalType": "address",
          "name": "owner",
          "type": "address"
        },
        {
          "indexed": false,
          "internalType": "address",
          "name": "token",
          "type": "address"
        },
        {
          "indexed": false,
          "internalType": "uint256",
          "name": "numOfTokens",
          "type": "uint256"
        },
        {
          "indexed": false,
          "internalType": "uint256",
          "name": "currenttime",
          "type": "uint256"
        },
        {
          "indexed": false,
          "internalType": "uint256",
          "name": "unlockTime",
          "type": "uint256"
        },
        {
          "indexed": false,
          "internalType": "enum PICNICLocker.Status",
          "name": "status",
          "type": "uint8"
        }
      ],
      "name": "Locked",
      "type": "event"
    },
    {
      "anonymous": false,
      "inputs": [
        {
          "indexed": true,
          "internalType": "address",
          "name": "previousOwner",
          "type": "address"
        },
        {
          "indexed": true,
          "internalType": "address",
          "name": "newOwner",
          "type": "address"
        }
      ],
      "name": "OwnershipTransferred",
      "type": "event"
    },
    {
      "anonymous": false,
      "inputs": [
        {
          "indexed": false,
          "internalType": "uint256",
          "name": "id",
          "type": "uint256"
        },
        {
          "indexed": false,
          "internalType": "address",
          "name": "owner",
          "type": "address"
        },
        {
          "indexed": false,
          "internalType": "address",
          "name": "token",
          "type": "address"
        },
        {
          "indexed": false,
          "internalType": "uint256",
          "name": "numOfTokens",
          "type": "uint256"
        },
        {
          "indexed": false,
          "internalType": "uint256",
          "name": "currenttime",
          "type": "uint256"
        },
        {
          "indexed": false,
          "internalType": "uint256",
          "name": "unlockTime",
          "type": "uint256"
        },
        {
          "indexed": false,
          "internalType": "enum PICNICLocker.Status",
          "name": "status",
          "type": "uint8"
        }
      ],
      "name": "Unlocked",
      "type": "event"
    },
    {
      "inputs": [],
      "name": "lockCount",
      "outputs": [
        {
          "internalType": "uint256",
          "name": "",
          "type": "uint256"
        }
      ],
      "stateMutability": "view",
      "type": "function",
      "constant": true
    },
    {
      "inputs": [],
      "name": "lockFee",
      "outputs": [
        {
          "internalType": "uint256",
          "name": "",
          "type": "uint256"
        }
      ],
      "stateMutability": "view",
      "type": "function",
      "constant": true
    },
    {
      "inputs": [
        {
          "internalType": "uint256",
          "name": "",
          "type": "uint256"
        }
      ],
      "name": "lockedToken",
      "outputs": [
        {
          "internalType": "uint256",
          "name": "id",
          "type": "uint256"
        },
        {
          "internalType": "address",
          "name": "owner",
          "type": "address"
        },
        {
          "internalType": "address",
          "name": "token",
          "type": "address"
        },
        {
          "internalType": "uint256",
          "name": "numOfTokens",
          "type": "uint256"
        },
        {
          "internalType": "uint256",
          "name": "lockTime",
          "type": "uint256"
        },
        {
          "internalType": "uint256",
          "name": "unlockTime",
          "type": "uint256"
        },
        {
          "internalType": "enum PICNICLocker.Status",
          "name": "status",
          "type": "uint8"
        }
      ],
      "stateMutability": "view",
      "type": "function",
      "constant": true
    },
    {
      "inputs": [],
      "name": "owner",
      "outputs": [
        {
          "internalType": "address",
          "name": "",
          "type": "address"
        }
      ],
      "stateMutability": "view",
      "type": "function",
      "constant": true
    },
    {
      "inputs": [],
      "name": "renounceOwnership",
      "outputs": [],
      "stateMutability": "nonpayable",
      "type": "function"
    },
    {
      "inputs": [
        {
          "internalType": "address",
          "name": "newOwner",
          "type": "address"
        }
      ],
      "name": "transferOwnership",
      "outputs": [],
      "stateMutability": "nonpayable",
      "type": "function"
    },
    {
      "inputs": [
        {
          "internalType": "address",
          "name": "_token",
          "type": "address"
        },
        {
          "internalType": "uint256",
          "name": "_numOfTokens",
          "type": "uint256"
        },
        {
          "internalType": "uint256",
          "name": "_unlockTime",
          "type": "uint256"
        }
      ],
      "name": "lockTokens",
      "outputs": [],
      "stateMutability": "payable",
      "type": "function",
      "payable": true
    },
    {
      "inputs": [
        {
          "internalType": "uint256",
          "name": "_id",
          "type": "uint256"
        },
        {
          "internalType": "uint256",
          "name": "_numOfTokens",
          "type": "uint256"
        }
      ],
      "name": "unlockTokens",
      "outputs": [],
      "stateMutability": "nonpayable",
      "type": "function"
    },
    {
      "inputs": [],
      "name": "getLocksListbyUser",
      "outputs": [
        {
          "internalType": "uint256[]",
          "name": "",
          "type": "uint256[]"
        }
      ],
      "stateMutability": "view",
      "type": "function",
      "constant": true
    },
    {
      "inputs": [
        {
          "internalType": "address",
          "name": "_tokenAddress",
          "type": "address"
        }
      ],
      "name": "getLocksListbyToken",
      "outputs": [
        {
          "internalType": "uint256[]",
          "name": "",
          "type": "uint256[]"
        }
      ],
      "stateMutability": "view",
      "type": "function",
      "constant": true
    },
    {
      "inputs": [
        {
          "internalType": "uint256",
          "name": "_fee",
          "type": "uint256"
        }
      ],
      "name": "updateFee",
      "outputs": [],
      "stateMutability": "nonpayable",
      "type": "function"
    },
    {
      "inputs": [],
      "name": "balanceOfContract",
      "outputs": [
        {
          "internalType": "uint256",
          "name": "",
          "type": "uint256"
        }
      ],
      "stateMutability": "view",
      "type": "function",
      "constant": true
    }
  ],
  "bytecode": "0x6080604052655af3107a400060025534801561001a57600080fd5b5061003761002c61003c60201b60201c565b61004460201b60201c565b610108565b600033905090565b60008060009054906101000a900473ffffffffffffffffffffffffffffffffffffffff169050816000806101000a81548173ffffffffffffffffffffffffffffffffffffffff021916908373ffffffffffffffffffffffffffffffffffffffff1602179055508173ffffffffffffffffffffffffffffffffffffffff168173ffffffffffffffffffffffffffffffffffffffff167f8be0079c531659141344cd1fd0a4f28419497f9722a3daafe3b4186f6b6457e060405160405180910390a35050565b6113c9806101176000396000f3fe6080604052600436106100a75760003560e01c80639b10b6f5116100645780639b10b6f514610196578063a25983e5146101c1578063bb941cff146101dd578063e117dced14610220578063e6c7c4561461025d578063f2fde38b14610288576100a7565b806315ca89f9146100ac5780633190cbf8146100d757806356a0623514610100578063715018a61461012b5780638da5cb5b146101425780639012c4a81461016d575b600080fd5b3480156100b857600080fd5b506100c16102b1565b6040516100ce9190610d66565b60405180910390f35b3480156100e357600080fd5b506100fe60048036038101906100f99190610db9565b610346565b005b34801561010c57600080fd5b5061011561052d565b6040516101229190610e08565b60405180910390f35b34801561013757600080fd5b50610140610533565b005b34801561014e57600080fd5b506101576105bb565b6040516101649190610e64565b60405180910390f35b34801561017957600080fd5b50610194600480360381019061018f9190610e7f565b6105e4565b005b3480156101a257600080fd5b506101ab61066a565b6040516101b89190610e08565b60405180910390f35b6101db60048036038101906101d69190610ed8565b610670565b005b3480156101e957600080fd5b5061020460048036038101906101ff9190610e7f565b610996565b6040516102179796959493929190610fa2565b60405180910390f35b34801561022c57600080fd5b5061024760048036038101906102429190611011565b610a25565b6040516102549190610d66565b60405180910390f35b34801561026957600080fd5b50610272610abc565b60405161027f9190610e08565b60405180910390f35b34801561029457600080fd5b506102af60048036038101906102aa9190611011565b610ac4565b005b6060600560003373ffffffffffffffffffffffffffffffffffffffff1673ffffffffffffffffffffffffffffffffffffffff16815260200190815260200160002080548060200260200160405190810160405280929190818152602001828054801561033c57602002820191906000526020600020905b815481526020019060010190808311610328575b5050505050905090565b3373ffffffffffffffffffffffffffffffffffffffff166003600084815260200190815260200160002060010160009054906101000a900473ffffffffffffffffffffffffffffffffffffffff1673ffffffffffffffffffffffffffffffffffffffff16146103ea576040517f08c379a00000000000000000000000000000000000000000000000000000000081526004016103e1906110c1565b60405180910390fd5b8060036000848152602001908152602001600020600301541015610443576040517f08c379a000000000000000000000000000000000000000000000000000000000815260040161043a9061112d565b60405180910390fd5b61046c816003600085815260200190815260200160002060030154610bbc90919063ffffffff16565b60036000848152602001908152602001600020600301819055506000600360008481526020019081526020016000206003015414156104e95760026003600084815260200190815260200160002060060160006101000a81548160ff021916908360028111156104df576104de610f2b565b5b0217905550610529565b60016003600084815260200190815260200160002060060160006101000a81548160ff0219169083600281111561052357610522610f2b565b5b02179055505b5050565b60025481565b61053b610bd2565b73ffffffffffffffffffffffffffffffffffffffff166105596105bb565b73ffffffffffffffffffffffffffffffffffffffff16146105af576040517f08c379a00000000000000000000000000000000000000000000000000000000081526004016105a690611199565b60405180910390fd5b6105b96000610bda565b565b60008060009054906101000a900473ffffffffffffffffffffffffffffffffffffffff16905090565b6105ec610bd2565b73ffffffffffffffffffffffffffffffffffffffff1661060a6105bb565b73ffffffffffffffffffffffffffffffffffffffff1614610660576040517f08c379a000000000000000000000000000000000000000000000000000000000815260040161065790611199565b60405180910390fd5b8060028190555050565b60015481565b8273ffffffffffffffffffffffffffffffffffffffff166323b872dd3330856040518463ffffffff1660e01b81526004016106ad939291906111b9565b6020604051808303816000875af11580156106cc573d6000803e3d6000fd5b505050506040513d601f19601f820116820180604052508101906106f09190611228565b506001600081548092919061070490611284565b91905055506040518060e0016040528060015481526020013373ffffffffffffffffffffffffffffffffffffffff1681526020018473ffffffffffffffffffffffffffffffffffffffff1681526020018381526020014281526020018281526020016000600281111561077a57610779610f2b565b5b8152506003600060015481526020019081526020016000206000820151816000015560208201518160010160006101000a81548173ffffffffffffffffffffffffffffffffffffffff021916908373ffffffffffffffffffffffffffffffffffffffff16021790555060408201518160020160006101000a81548173ffffffffffffffffffffffffffffffffffffffff021916908373ffffffffffffffffffffffffffffffffffffffff160217905550606082015181600301556080820151816004015560a0820151816005015560c08201518160060160006101000a81548160ff0219169083600281111561087357610872610f2b565b5b0217905550905050600560003373ffffffffffffffffffffffffffffffffffffffff1673ffffffffffffffffffffffffffffffffffffffff1681526020019081526020016000206001549080600181540180825580915050600190039060005260206000200160009091909190915055600460008473ffffffffffffffffffffffffffffffffffffffff1673ffffffffffffffffffffffffffffffffffffffff16815260200190815260200160002060015490806001815401808255809150506001900390600052602060002001600090919091909150557f90ac16dc36505b629b4e18dc4822fbb909d3893a15310d4cac8ba1b1f94f8b8a600154338585428660006040516109899796959493929190610fa2565b60405180910390a1505050565b60036020528060005260406000206000915090508060000154908060010160009054906101000a900473ffffffffffffffffffffffffffffffffffffffff16908060020160009054906101000a900473ffffffffffffffffffffffffffffffffffffffff16908060030154908060040154908060050154908060060160009054906101000a900460ff16905087565b6060600460008373ffffffffffffffffffffffffffffffffffffffff1673ffffffffffffffffffffffffffffffffffffffff168152602001908152602001600020805480602002602001604051908101604052809291908181526020018280548015610ab057602002820191906000526020600020905b815481526020019060010190808311610a9c575b50505050509050919050565b600047905090565b610acc610bd2565b73ffffffffffffffffffffffffffffffffffffffff16610aea6105bb565b73ffffffffffffffffffffffffffffffffffffffff1614610b40576040517f08c379a0000000000000000000000000000000000000000000000000000000008152600401610b3790611199565b60405180910390fd5b600073ffffffffffffffffffffffffffffffffffffffff168173ffffffffffffffffffffffffffffffffffffffff161415610bb0576040517f08c379a0000000000000000000000000000000000000000000000000000000008152600401610ba79061133f565b60405180910390fd5b610bb981610bda565b50565b60008183610bca919061135f565b905092915050565b600033905090565b60008060009054906101000a900473ffffffffffffffffffffffffffffffffffffffff169050816000806101000a81548173ffffffffffffffffffffffffffffffffffffffff021916908373ffffffffffffffffffffffffffffffffffffffff1602179055508173ffffffffffffffffffffffffffffffffffffffff168173ffffffffffffffffffffffffffffffffffffffff167f8be0079c531659141344cd1fd0a4f28419497f9722a3daafe3b4186f6b6457e060405160405180910390a35050565b600081519050919050565b600082825260208201905092915050565b6000819050602082019050919050565b6000819050919050565b610cdd81610cca565b82525050565b6000610cef8383610cd4565b60208301905092915050565b6000602082019050919050565b6000610d1382610c9e565b610d1d8185610ca9565b9350610d2883610cba565b8060005b83811015610d59578151610d408882610ce3565b9750610d4b83610cfb565b925050600181019050610d2c565b5085935050505092915050565b60006020820190508181036000830152610d808184610d08565b905092915050565b600080fd5b610d9681610cca565b8114610da157600080fd5b50565b600081359050610db381610d8d565b92915050565b60008060408385031215610dd057610dcf610d88565b5b6000610dde85828601610da4565b9250506020610def85828601610da4565b9150509250929050565b610e0281610cca565b82525050565b6000602082019050610e1d6000830184610df9565b92915050565b600073ffffffffffffffffffffffffffffffffffffffff82169050919050565b6000610e4e82610e23565b9050919050565b610e5e81610e43565b82525050565b6000602082019050610e796000830184610e55565b92915050565b600060208284031215610e9557610e94610d88565b5b6000610ea384828501610da4565b91505092915050565b610eb581610e43565b8114610ec057600080fd5b50565b600081359050610ed281610eac565b92915050565b600080600060608486031215610ef157610ef0610d88565b5b6000610eff86828701610ec3565b9350506020610f1086828701610da4565b9250506040610f2186828701610da4565b9150509250925092565b7f4e487b7100000000000000000000000000000000000000000000000000000000600052602160045260246000fd5b60038110610f6b57610f6a610f2b565b5b50565b6000819050610f7c82610f5a565b919050565b6000610f8c82610f6e565b9050919050565b610f9c81610f81565b82525050565b600060e082019050610fb7600083018a610df9565b610fc46020830189610e55565b610fd16040830188610e55565b610fde6060830187610df9565b610feb6080830186610df9565b610ff860a0830185610df9565b61100560c0830184610f93565b98975050505050505050565b60006020828403121561102757611026610d88565b5b600061103584828501610ec3565b91505092915050565b600082825260208201905092915050565b7f4f6e6c79206f776e6572206f6620746865206c6f636b2063616e20756e6c6f6360008201527f6b00000000000000000000000000000000000000000000000000000000000000602082015250565b60006110ab60218361103e565b91506110b68261104f565b604082019050919050565b600060208201905081810360008301526110da8161109e565b9050919050565b7f4e6f7420656e6f75676820746f6b656e7320746f207769746864726177000000600082015250565b6000611117601d8361103e565b9150611122826110e1565b602082019050919050565b600060208201905081810360008301526111468161110a565b9050919050565b7f4f776e61626c653a2063616c6c6572206973206e6f7420746865206f776e6572600082015250565b600061118360208361103e565b915061118e8261114d565b602082019050919050565b600060208201905081810360008301526111b281611176565b9050919050565b60006060820190506111ce6000830186610e55565b6111db6020830185610e55565b6111e86040830184610df9565b949350505050565b60008115159050919050565b611205816111f0565b811461121057600080fd5b50565b600081519050611222816111fc565b92915050565b60006020828403121561123e5761123d610d88565b5b600061124c84828501611213565b91505092915050565b7f4e487b7100000000000000000000000000000000000000000000000000000000600052601160045260246000fd5b600061128f82610cca565b91507fffffffffffffffffffffffffffffffffffffffffffffffffffffffffffffffff8214156112c2576112c1611255565b5b600182019050919050565b7f4f776e61626c653a206e6577206f776e657220697320746865207a65726f206160008201527f6464726573730000000000000000000000000000000000000000000000000000602082015250565b600061132960268361103e565b9150611334826112cd565b604082019050919050565b600060208201905081810360008301526113588161131c565b9050919050565b600061136a82610cca565b915061137583610cca565b92508282101561138857611387611255565b5b82820390509291505056fea26469706673582212201a01f3caa6b61b2bbd6da6f921533c26a52e9540a55c3bcd17b2edcfdb8f165d64736f6c634300080b0033",
  "immutableReferences": {},
  "source": "// SPDX-License-Identifier: MIT\r\npragma solidity ^0.8.0;\r\n\r\nimport \"./IERC20.sol\";\r\nimport \"./Ownable.sol\";\r\nimport \"./SafeMath.sol\";\r\n\r\n\r\ncontract PICNICLocker is Ownable {\r\n\r\n    using SafeMath for uint;\r\n    uint public lockCount;    \r\n    uint public lockFee = 0.0001 ether;\r\n\r\n    mapping(uint => LockedToken)  public lockedToken;\r\n    mapping(address => uint[])  locksByUserTokenList;\r\n    mapping(address => uint[])  locksByUserList;\r\n\r\n    enum Status {LOCKED, P_WITHDRAWED, WITHDRAWED}\r\n\r\n    struct LockedToken {\r\n        uint id;\r\n        address owner; \r\n        address token;\r\n        uint numOfTokens;\r\n        uint lockTime;\r\n        uint unlockTime;\r\n        Status status;\r\n    }\r\n\r\n    event Locked (uint id, address owner, address token, uint numOfTokens, uint currenttime, uint unlockTime, Status status);\r\n    event Unlocked (uint id, address owner, address token, uint numOfTokens, uint currenttime, uint unlockTime, Status status);\r\n\r\n    function lockTokens(address _token, uint _numOfTokens, uint _unlockTime) payable public {\r\n        // require(msg.value >= lockFee, \"please pay the fee\");\r\n\r\n        IERC20(_token).transferFrom(msg.sender, address(this), _numOfTokens);\r\n\r\n        lockCount++;\r\n\r\n        lockedToken[lockCount] = LockedToken(\r\n            lockCount,\r\n            msg.sender,\r\n            _token,\r\n            _numOfTokens,\r\n            block.timestamp,\r\n            _unlockTime,\r\n            Status.LOCKED\r\n        );\r\n\r\n        locksByUserList[msg.sender].push(lockCount);\r\n        locksByUserTokenList[_token].push(lockCount);\r\n\r\n        emit Locked (lockCount, msg.sender, _token, _numOfTokens, block.timestamp, _unlockTime, Status.LOCKED);\r\n\r\n    }\r\n\r\n\r\n    function unlockTokens(uint _id, uint _numOfTokens) public {\r\n\r\n        require(lockedToken[_id].owner == msg.sender, \"Only owner of the lock can unlock\"); \r\n        // require(block.timestamp >= lockedToken[_id].unlockTime, \"Not unlocked yet\");\r\n        require(lockedToken[_id].numOfTokens >= _numOfTokens, \"Not enough tokens to withdraw\");\r\n\r\n        lockedToken[_id].numOfTokens = lockedToken[_id].numOfTokens.sub(_numOfTokens);\r\n\r\n        if(lockedToken[_id].numOfTokens == 0 ){\r\n            lockedToken[_id].status = Status.WITHDRAWED;\r\n        }\r\n        else {\r\n            lockedToken[_id].status = Status.P_WITHDRAWED;\r\n        }\r\n\r\n        // LockedToken memory locked = lockedToken[_id];\r\n\r\n        // emit Unlocked (\r\n        //     lockCount, \r\n        //     msg.sender, \r\n        //     _token, \r\n        //     _numOfTokens, \r\n        //     block.timestamp, \r\n        //     _unlockTime, \r\n        //     Status.LOCKED\r\n        //     );\r\n\r\n\r\n    }\r\n\r\n    // function getLock(uint _id) public view returns (LockedToken memory){\r\n    //     return lockedToken[_id];\r\n    // }\r\n\r\n    function getLocksListbyUser() public view returns (uint[] memory) {\r\n        return locksByUserList[msg.sender];\r\n    }\r\n\r\n    function getLocksListbyToken(address _tokenAddress) public view returns (uint[] memory) {\r\n        return locksByUserTokenList[_tokenAddress];\r\n    }\r\n\r\n    function updateFee(uint _fee) public onlyOwner {\r\n        lockFee = _fee;\r\n    }\r\n\r\n    function balanceOfContract() public view returns (uint) {\r\n        return address(this).balance;\r\n    }\r\n}",
  "sourcePath": "D:\\Fiverr\\PreSaleDApp\\pre-sale-dapp\\Locker2\\contracts\\PICNICLocker.sol",
  "compiler": {
    "name": "solc",
    "version": "0.8.11+commit.d7f03943.Emscripten.clang"
  },
  "schemaVersion": "3.4.3",
  "updatedAt": "2022-01-01T04:39:54.299Z",
  "networkType": "ethereum",
  "devdoc": {
    "kind": "dev",
    "methods": {
      "owner()": {
        "details": "Returns the address of the current owner."
      },
      "renounceOwnership()": {
        "details": "Leaves the contract without owner. It will not be possible to call `onlyOwner` functions anymore. Can only be called by the current owner. NOTE: Renouncing ownership will leave the contract without an owner, thereby removing any functionality that is only available to the owner."
      },
      "transferOwnership(address)": {
        "details": "Transfers ownership of the contract to a new account (`newOwner`). Can only be called by the current owner."
      }
    },
    "version": 1
  },
  "userdoc": {
    "kind": "user",
    "methods": {},
    "version": 1
  }
}