{
  "contractName": "PancakeRouter",
  "abi": [
    {
      "stateMutability": "payable",
      "type": "receive"
    },
    {
      "inputs": [
        {
          "internalType": "address",
          "name": "token",
          "type": "address"
        },
        {
          "internalType": "uint256",
          "name": "amountTokenDesired",
          "type": "uint256"
        },
        {
          "internalType": "uint256",
          "name": "amountTokenMin",
          "type": "uint256"
        },
        {
          "internalType": "uint256",
          "name": "amountETHMin",
          "type": "uint256"
        },
        {
          "internalType": "address",
          "name": "to",
          "type": "address"
        },
        {
          "internalType": "uint256",
          "name": "deadline",
          "type": "uint256"
        }
      ],
      "name": "addLiquidityETH",
      "outputs": [
        {
          "internalType": "uint256",
          "name": "amountToken",
          "type": "uint256"
        },
        {
          "internalType": "uint256",
          "name": "amountETH",
          "type": "uint256"
        },
        {
          "internalType": "uint256",
          "name": "liquidity",
          "type": "uint256"
        }
      ],
      "stateMutability": "payable",
      "type": "function"
    }
  ],
  "bytecode": "0x608060405234801561001057600080fd5b506102fe806100206000396000f3fe6080604052600436106100225760003560e01c8063f305d7191461002e57600080fd5b3661002957005b600080fd5b61004161003c366004610216565b610060565b6040805193845260208401929092529082015260600160405180910390f35b600080600083428110156100b45760405162461bcd60e51b815260206004820152601660248201527514185b98d85ad9549bdd5d195c8e881156141254915160521b60448201526064015b60405180910390fd5b6001600160a01b038a166100da5760405162461bcd60e51b81526004016100ab9061026e565b6001600160a01b0386166101005760405162461bcd60e51b81526004016100ab9061026e565b6040516323b872dd60e01b8152336004820152306024820152604481018a90526000906001600160a01b038c16906323b872dd906064016020604051808303816000875af1158015610156573d6000803e3d6000fd5b505050506040513d601f19601f8201168201806040525081019061017a919061029f565b9050806101e35760405162461bcd60e51b815260206004820152603160248201527f556e61626c6520746f207472616e736665722070726573616c6520746f6b656e6044820152701cc81d1bc81d1a194818dbdb9d1c9858dd607a1b60648201526084016100ab565b5060019a60029a5060039950975050505050505050565b80356001600160a01b038116811461021157600080fd5b919050565b60008060008060008060c0878903121561022f57600080fd5b610238876101fa565b955060208701359450604087013593506060870135925061025b608088016101fa565b915060a087013590509295509295509295565b6020808252601790820152761b9bc81b9d5b1b081859191c995cdcc8185b1b1bddd959604a1b604082015260600190565b6000602082840312156102b157600080fd5b815180151581146102c157600080fd5b939250505056fea264697066735822122096156c61e9f6d8fd1ee03db01a584853954ce391f0f1a4e6fbb21e91c016296064736f6c634300080b0033",
  "immutableReferences": {},
  "source": "// SPDX-License-Identifier: MIT\r\n\r\npragma solidity ^0.8.0;\r\n\r\nimport \"./interfaces/IERC20.sol\";\r\n\r\n\r\ncontract PancakeRouter {\r\n\r\n    modifier ensure(uint deadline) {\r\n        require(deadline >= block.timestamp, 'PancakeRouter: EXPIRED');\r\n        _;\r\n    }\r\n\r\n\r\n    receive() external payable {\r\n        // assert(msg.sender == WETH); // only accept ETH via fallback from the WETH contract\r\n    }\r\n\r\n\r\n    function addLiquidityETH(\r\n        address token,\r\n        uint amountTokenDesired,\r\n        uint amountTokenMin,\r\n        uint amountETHMin,\r\n        address to,\r\n        uint deadline\r\n    ) external payable ensure(deadline) returns (uint amountToken, uint amountETH, uint liquidity) {\r\n\r\n        require(token != address(0), \"no null address allowed\");\r\n        require(amountTokenDesired >= 0, \"no null address allowed\");\r\n        require(amountTokenMin >= 0, \"no null address allowed\");\r\n        require(amountETHMin >= 0, \"no null address allowed\");\r\n        require(to != address(0), \"no null address allowed\");\r\n\r\n\r\n        bool transfer = IERC20(token).transferFrom(msg.sender, address(this), amountTokenDesired );\r\n        require( transfer, \"Unable to transfer presale tokens to the contract\");\r\n\r\n\r\n        (amountToken, amountETH, liquidity) = (1,2,3);\r\n\r\n\r\n    }\r\n\r\n\r\n\r\n}\r\n",
  "sourcePath": "D:\\Fiverr\\PreSaleDApp\\pre-sale-dapp\\Contract\\contracts\\PancakeRouter.sol",
  "compiler": {
    "name": "solc",
    "version": "0.8.11+commit.d7f03943.Emscripten.clang"
  },
  "schemaVersion": "3.4.3",
  "updatedAt": "2021-12-25T19:47:07.934Z",
  "devdoc": {
    "kind": "dev",
    "methods": {},
    "version": 1
  },
  "userdoc": {
    "kind": "user",
    "methods": {},
    "version": 1
  }
}