{
  "contractName": "PresaleToken",
  "abi": [
    {
      "anonymous": false,
      "inputs": [
        {
          "indexed": true,
          "internalType": "address",
          "name": "owner",
          "type": "address"
        },
        {
          "indexed": true,
          "internalType": "address",
          "name": "spender",
          "type": "address"
        },
        {
          "indexed": false,
          "internalType": "uint256",
          "name": "value",
          "type": "uint256"
        }
      ],
      "name": "Approval",
      "type": "event"
    },
    {
      "anonymous": false,
      "inputs": [
        {
          "indexed": true,
          "internalType": "address",
          "name": "from",
          "type": "address"
        },
        {
          "indexed": true,
          "internalType": "address",
          "name": "to",
          "type": "address"
        },
        {
          "indexed": false,
          "internalType": "uint256",
          "name": "value",
          "type": "uint256"
        }
      ],
      "name": "Transfer",
      "type": "event"
    },
    {
      "inputs": [],
      "name": "totalSupply",
      "outputs": [
        {
          "internalType": "uint256",
          "name": "",
          "type": "uint256"
        }
      ],
      "stateMutability": "view",
      "type": "function"
    },
    {
      "inputs": [
        {
          "internalType": "address",
          "name": "account",
          "type": "address"
        }
      ],
      "name": "balanceOf",
      "outputs": [
        {
          "internalType": "uint256",
          "name": "",
          "type": "uint256"
        }
      ],
      "stateMutability": "view",
      "type": "function"
    },
    {
      "inputs": [
        {
          "internalType": "address",
          "name": "recipient",
          "type": "address"
        },
        {
          "internalType": "uint256",
          "name": "amount",
          "type": "uint256"
        }
      ],
      "name": "transfer",
      "outputs": [
        {
          "internalType": "bool",
          "name": "",
          "type": "bool"
        }
      ],
      "stateMutability": "nonpayable",
      "type": "function"
    },
    {
      "inputs": [
        {
          "internalType": "address",
          "name": "owner",
          "type": "address"
        },
        {
          "internalType": "address",
          "name": "spender",
          "type": "address"
        }
      ],
      "name": "allowance",
      "outputs": [
        {
          "internalType": "uint256",
          "name": "",
          "type": "uint256"
        }
      ],
      "stateMutability": "view",
      "type": "function"
    },
    {
      "inputs": [
        {
          "internalType": "address",
          "name": "spender",
          "type": "address"
        },
        {
          "internalType": "uint256",
          "name": "amount",
          "type": "uint256"
        }
      ],
      "name": "approve",
      "outputs": [
        {
          "internalType": "bool",
          "name": "",
          "type": "bool"
        }
      ],
      "stateMutability": "nonpayable",
      "type": "function"
    },
    {
      "inputs": [
        {
          "internalType": "address",
          "name": "sender",
          "type": "address"
        },
        {
          "internalType": "address",
          "name": "recipient",
          "type": "address"
        },
        {
          "internalType": "uint256",
          "name": "amount",
          "type": "uint256"
        }
      ],
      "name": "transferFrom",
      "outputs": [
        {
          "internalType": "bool",
          "name": "",
          "type": "bool"
        }
      ],
      "stateMutability": "nonpayable",
      "type": "function"
    },
    {
      "inputs": [
        {
          "internalType": "address",
          "name": "account",
          "type": "address"
        },
        {
          "internalType": "uint256",
          "name": "amount",
          "type": "uint256"
        }
      ],
      "name": "_mint",
      "outputs": [],
      "stateMutability": "nonpayable",
      "type": "function"
    },
    {
      "inputs": [],
      "name": "name",
      "outputs": [
        {
          "internalType": "string",
          "name": "",
          "type": "string"
        }
      ],
      "stateMutability": "view",
      "type": "function"
    },
    {
      "inputs": [],
      "name": "symbol",
      "outputs": [
        {
          "internalType": "string",
          "name": "",
          "type": "string"
        }
      ],
      "stateMutability": "view",
      "type": "function"
    },
    {
      "inputs": [],
      "name": "decimals",
      "outputs": [
        {
          "internalType": "uint8",
          "name": "",
          "type": "uint8"
        }
      ],
      "stateMutability": "pure",
      "type": "function"
    }
  ],
  "bytecode": "0x60c0604052600c60808190526b283932b9b0b632ba37b5b2b760a11b60a090815261002d916003919061006b565b50604080518082019091526003808252621414d560ea1b60209092019182526100589160049161006b565b5034801561006557600080fd5b5061013f565b82805461007790610104565b90600052602060002090601f01602090048101928261009957600085556100df565b82601f106100b257805160ff19168380011785556100df565b828001600101855582156100df579182015b828111156100df5782518255916020019190600101906100c4565b506100eb9291506100ef565b5090565b5b808211156100eb57600081556001016100f0565b600181811c9082168061011857607f821691505b6020821081141561013957634e487b7160e01b600052602260045260246000fd5b50919050565b6107dd8061014e6000396000f3fe608060405234801561001057600080fd5b506004361061008e5760003560e01c806306fdde0314610093578063095ea7b3146100b157806318160ddd146100d457806323b872dd146100e6578063313ce567146100f95780634e6ec2471461010857806370a082311461011d57806395d89b4114610146578063a9059cbb1461014e578063dd62ed3e14610161575b600080fd5b61009b61019a565b6040516100a8919061061a565b60405180910390f35b6100c46100bf36600461068b565b61022c565b60405190151581526020016100a8565b6002545b6040519081526020016100a8565b6100c46100f43660046106b5565b610242565b604051601281526020016100a8565b61011b61011636600461068b565b6102f1565b005b6100d861012b3660046106f1565b6001600160a01b031660009081526020819052604090205490565b61009b61038f565b6100c461015c36600461068b565b61039e565b6100d861016f366004610713565b6001600160a01b03918216600090815260016020908152604080832093909416825291909152205490565b6060600380546101a990610746565b80601f01602080910402602001604051908101604052809291908181526020018280546101d590610746565b80156102225780601f106101f757610100808354040283529160200191610222565b820191906000526020600020905b81548152906001019060200180831161020557829003601f168201915b5050505050905090565b60006102393384846103ab565b50600192915050565b600061024f84848461049a565b6001600160a01b0384166000908152600160209081526040808320338452909152902054828110156102d95760405162461bcd60e51b815260206004820152602860248201527f45524332303a207472616e7366657220616d6f756e74206578636565647320616044820152676c6c6f77616e636560c01b60648201526084015b60405180910390fd5b6102e685338584036103ab565b506001949350505050565b6001600160a01b0382166103475760405162461bcd60e51b815260206004820152601f60248201527f45524332303a206d696e7420746f20746865207a65726f20616464726573730060448201526064016102d0565b80600260008282546103599190610781565b90915550506001600160a01b03821660009081526020819052604081208054839290610386908490610781565b90915550505050565b6060600480546101a990610746565b600061023933848461049a565b6001600160a01b03831661040d5760405162461bcd60e51b8152602060048201526024808201527f45524332303a20617070726f76652066726f6d20746865207a65726f206164646044820152637265737360e01b60648201526084016102d0565b6001600160a01b03821661046e5760405162461bcd60e51b815260206004820152602260248201527f45524332303a20617070726f766520746f20746865207a65726f206164647265604482015261737360f01b60648201526084016102d0565b6001600160a01b0392831660009081526001602090815260408083209490951682529290925291902055565b6001600160a01b0383166104fe5760405162461bcd60e51b815260206004820152602560248201527f45524332303a207472616e736665722066726f6d20746865207a65726f206164604482015264647265737360d81b60648201526084016102d0565b6001600160a01b0382166105605760405162461bcd60e51b815260206004820152602360248201527f45524332303a207472616e7366657220746f20746865207a65726f206164647260448201526265737360e81b60648201526084016102d0565b6001600160a01b038316600090815260208190526040902054818110156105d85760405162461bcd60e51b815260206004820152602660248201527f45524332303a207472616e7366657220616d6f756e7420657863656564732062604482015265616c616e636560d01b60648201526084016102d0565b6001600160a01b0380851660009081526020819052604080822085850390559185168152908120805484929061060f908490610781565b909155505050505050565b600060208083528351808285015260005b818110156106475785810183015185820160400152820161062b565b81811115610659576000604083870101525b50601f01601f1916929092016040019392505050565b80356001600160a01b038116811461068657600080fd5b919050565b6000806040838503121561069e57600080fd5b6106a78361066f565b946020939093013593505050565b6000806000606084860312156106ca57600080fd5b6106d38461066f565b92506106e16020850161066f565b9150604084013590509250925092565b60006020828403121561070357600080fd5b61070c8261066f565b9392505050565b6000806040838503121561072657600080fd5b61072f8361066f565b915061073d6020840161066f565b90509250929050565b600181811c9082168061075a57607f821691505b6020821081141561077b57634e487b7160e01b600052602260045260246000fd5b50919050565b600082198211156107a257634e487b7160e01b600052601160045260246000fd5b50019056fea26469706673582212205af71665ca665706389be76bd1f2a4a1acc0e5e8441d313f464acf4d1244528b64736f6c634300080b0033",
  "immutableReferences": {},
  "source": "// SPDX-License-Identifier: MIT\r\npragma solidity ^0.8.0;\r\n\r\nimport \"./interfaces/IERC20Metadata.sol\";\r\nimport \"./Context.sol\";\r\n\r\ncontract PresaleToken is IERC20Metadata{\r\n\r\n    mapping(address => uint256) private _balances;\r\n\r\n    mapping(address => mapping(address => uint256)) private _allowances;\r\n\r\n    uint256 private _totalSupply;\r\n    string private _name = \"Presaletoken\";\r\n    string private _symbol = \"PST\";\r\n\r\n    function totalSupply() public view virtual returns (uint256) {\r\n        return _totalSupply;\r\n    }\r\n\r\n    function balanceOf(address account) public view virtual returns (uint256) {\r\n        return _balances[account];\r\n    }\r\n\r\n    function transfer(address recipient, uint256 amount) public returns (bool) {\r\n        _transfer(msg.sender, recipient, amount);\r\n        return true;\r\n    }\r\n\r\n    function allowance(address owner, address spender) public view virtual returns (uint256) {\r\n        return _allowances[owner][spender];\r\n    }\r\n\r\n    function approve(address spender, uint256 amount) public virtual returns (bool) {\r\n        _approve(msg.sender, spender, amount);\r\n        return true;\r\n    }\r\n\r\n    function transferFrom(\r\n        address sender,\r\n        address recipient,\r\n        uint256 amount\r\n    ) public returns (bool) {\r\n        _transfer(sender, recipient, amount);\r\n\r\n        uint256 currentAllowance = _allowances[sender][msg.sender];\r\n        require(currentAllowance >= amount, \"ERC20: transfer amount exceeds allowance\");\r\n        unchecked {\r\n            _approve(sender, msg.sender, currentAllowance - amount);\r\n        }\r\n\r\n        return true;\r\n    }\r\n\r\n    function _transfer(\r\n        address sender,\r\n        address recipient,\r\n        uint256 amount\r\n    ) internal virtual {\r\n        require(sender != address(0), \"ERC20: transfer from the zero address\");\r\n        require(recipient != address(0), \"ERC20: transfer to the zero address\");\r\n\r\n        uint256 senderBalance = _balances[sender];\r\n        require(senderBalance >= amount, \"ERC20: transfer amount exceeds balance\");\r\n        unchecked {\r\n            _balances[sender] = senderBalance - amount;\r\n        }\r\n        _balances[recipient] += amount;\r\n\r\n    }\r\n\r\n    function _mint(address account, uint256 amount) public {\r\n        require(account != address(0), \"ERC20: mint to the zero address\");\r\n\r\n        _totalSupply += amount;\r\n        _balances[account] += amount;\r\n    }\r\n\r\n    function _approve(\r\n        address owner,\r\n        address spender,\r\n        uint256 amount\r\n    ) internal virtual {\r\n        require(owner != address(0), \"ERC20: approve from the zero address\");\r\n        require(spender != address(0), \"ERC20: approve to the zero address\");\r\n\r\n        _allowances[owner][spender] = amount;\r\n    }\r\n\r\n\r\n    function name() public view returns (string memory) {\r\n        return _name;\r\n    }\r\n\r\n    /**\r\n     * @dev Returns the symbol of the token.\r\n     */\r\n    function symbol() public view returns (string memory){\r\n        return _symbol;\r\n    }\r\n\r\n    /**\r\n     * @dev Returns the decimals places of the token.\r\n     */\r\n    function decimals() public pure returns (uint8){\r\n        return 18;\r\n    }\r\n\r\n\r\n\r\n}\r\n",
  "sourcePath": "D:\\Fiverr\\PreSaleDApp\\pre-sale-dapp\\Contract\\contracts\\PresaleToken.sol",
  "compiler": {
    "name": "solc",
    "version": "0.8.11+commit.d7f03943.Emscripten.clang"
  },
  "schemaVersion": "3.4.3",
  "updatedAt": "2021-12-24T00:03:29.774Z",
  "devdoc": {
    "kind": "dev",
    "methods": {
      "decimals()": {
        "details": "Returns the decimals places of the token."
      },
      "name()": {
        "details": "Returns the name of the token."
      },
      "symbol()": {
        "details": "Returns the symbol of the token."
      }
    },
    "version": 1
  },
  "userdoc": {
    "kind": "user",
    "methods": {},
    "version": 1
  }
}