{
  "contractName": "Presale",
  "abi": [
    {
      "anonymous": false,
      "inputs": [
        {
          "indexed": true,
          "internalType": "address",
          "name": "previousOwner",
          "type": "address"
        },
        {
          "indexed": true,
          "internalType": "address",
          "name": "newOwner",
          "type": "address"
        }
      ],
      "name": "OwnershipTransferred",
      "type": "event"
    },
    {
      "inputs": [],
      "name": "WBNBAddr",
      "outputs": [
        {
          "internalType": "address",
          "name": "",
          "type": "address"
        }
      ],
      "stateMutability": "view",
      "type": "function"
    },
    {
      "inputs": [],
      "name": "count",
      "outputs": [
        {
          "internalType": "uint256",
          "name": "",
          "type": "uint256"
        }
      ],
      "stateMutability": "view",
      "type": "function"
    },
    {
      "inputs": [],
      "name": "devAddr",
      "outputs": [
        {
          "internalType": "address",
          "name": "",
          "type": "address"
        }
      ],
      "stateMutability": "view",
      "type": "function"
    },
    {
      "inputs": [
        {
          "internalType": "uint256",
          "name": "",
          "type": "uint256"
        }
      ],
      "name": "internalData",
      "outputs": [
        {
          "internalType": "uint256",
          "name": "totalTokensSold",
          "type": "uint256"
        },
        {
          "internalType": "uint256",
          "name": "revenueFromPresale",
          "type": "uint256"
        },
        {
          "internalType": "uint256",
          "name": "tokensAddedToLiquidity",
          "type": "uint256"
        },
        {
          "internalType": "uint256",
          "name": "extraTokens",
          "type": "uint256"
        },
        {
          "internalType": "uint256",
          "name": "poolShareBNB",
          "type": "uint256"
        },
        {
          "internalType": "uint256",
          "name": "devTeamShareBNB",
          "type": "uint256"
        },
        {
          "internalType": "uint256",
          "name": "ownersShareBNB",
          "type": "uint256"
        }
      ],
      "stateMutability": "view",
      "type": "function"
    },
    {
      "inputs": [
        {
          "internalType": "address",
          "name": "",
          "type": "address"
        }
      ],
      "name": "isUserWhitelistedToStartProject",
      "outputs": [
        {
          "internalType": "bool",
          "name": "",
          "type": "bool"
        }
      ],
      "stateMutability": "view",
      "type": "function"
    },
    {
      "inputs": [],
      "name": "owner",
      "outputs": [
        {
          "internalType": "address",
          "name": "",
          "type": "address"
        }
      ],
      "stateMutability": "view",
      "type": "function"
    },
    {
      "inputs": [],
      "name": "pancakeSwapFactoryAddr",
      "outputs": [
        {
          "internalType": "address",
          "name": "",
          "type": "address"
        }
      ],
      "stateMutability": "view",
      "type": "function"
    },
    {
      "inputs": [],
      "name": "pancakeSwapRouterAddr",
      "outputs": [
        {
          "internalType": "address",
          "name": "",
          "type": "address"
        }
      ],
      "stateMutability": "view",
      "type": "function"
    },
    {
      "inputs": [
        {
          "internalType": "uint256",
          "name": "",
          "type": "uint256"
        },
        {
          "internalType": "address",
          "name": "",
          "type": "address"
        }
      ],
      "name": "participant",
      "outputs": [
        {
          "internalType": "uint256",
          "name": "value",
          "type": "uint256"
        },
        {
          "internalType": "uint256",
          "name": "tokens",
          "type": "uint256"
        },
        {
          "internalType": "bool",
          "name": "whiteListed",
          "type": "bool"
        }
      ],
      "stateMutability": "view",
      "type": "function"
    },
    {
      "inputs": [
        {
          "internalType": "uint256",
          "name": "",
          "type": "uint256"
        }
      ],
      "name": "presaleInfo",
      "outputs": [
        {
          "internalType": "enum Presale.PresaleType",
          "name": "typeOfPresale",
          "type": "uint8"
        },
        {
          "internalType": "address",
          "name": "preSaleContractAddr",
          "type": "address"
        },
        {
          "internalType": "address",
          "name": "presaleOwnerAddr",
          "type": "address"
        },
        {
          "internalType": "uint256",
          "name": "priceOfEachToken",
          "type": "uint256"
        },
        {
          "internalType": "uint256",
          "name": "tokensForSale",
          "type": "uint256"
        },
        {
          "internalType": "uint256",
          "name": "reservedTokensPCForLP",
          "type": "uint256"
        },
        {
          "internalType": "uint256",
          "name": "remainingTokensForSale",
          "type": "uint256"
        },
        {
          "internalType": "uint256",
          "name": "accumulatedBalance",
          "type": "uint256"
        },
        {
          "internalType": "address",
          "name": "pairAddress",
          "type": "address"
        },
        {
          "internalType": "enum Presale.PreSaleStatus",
          "name": "preSaleStatus",
          "type": "uint8"
        }
      ],
      "stateMutability": "view",
      "type": "function"
    },
    {
      "inputs": [
        {
          "internalType": "uint256",
          "name": "",
          "type": "uint256"
        }
      ],
      "name": "presaleParticipationCriteria",
      "outputs": [
        {
          "internalType": "address",
          "name": "preSaleContractAddr",
          "type": "address"
        },
        {
          "internalType": "address",
          "name": "criteriaTokenAddr",
          "type": "address"
        },
        {
          "internalType": "uint256",
          "name": "minTokensForParticipation",
          "type": "uint256"
        },
        {
          "components": [
            {
              "internalType": "uint256",
              "name": "minTokensReq",
              "type": "uint256"
            },
            {
              "internalType": "uint256",
              "name": "maxTokensReq",
              "type": "uint256"
            }
          ],
          "internalType": "struct Presale.ReqestedTokens",
          "name": "reqestedTokens",
          "type": "tuple"
        },
        {
          "internalType": "uint256",
          "name": "softCap",
          "type": "uint256"
        },
        {
          "components": [
            {
              "internalType": "uint256",
              "name": "startedAt",
              "type": "uint256"
            },
            {
              "internalType": "uint256",
              "name": "expiredAt",
              "type": "uint256"
            }
          ],
          "internalType": "struct Presale.PresaleTimes",
          "name": "presaleTimes",
          "type": "tuple"
        }
      ],
      "stateMutability": "view",
      "type": "function"
    },
    {
      "inputs": [
        {
          "internalType": "uint256",
          "name": "",
          "type": "uint256"
        }
      ],
      "name": "presalectCounts",
      "outputs": [
        {
          "internalType": "uint256",
          "name": "participantsCount",
          "type": "uint256"
        },
        {
          "internalType": "uint256",
          "name": "claimsCount",
          "type": "uint256"
        }
      ],
      "stateMutability": "view",
      "type": "function"
    },
    {
      "inputs": [],
      "name": "renounceOwnership",
      "outputs": [],
      "stateMutability": "nonpayable",
      "type": "function"
    },
    {
      "inputs": [],
      "name": "salesFeeInPercent",
      "outputs": [
        {
          "internalType": "uint8",
          "name": "",
          "type": "uint8"
        }
      ],
      "stateMutability": "view",
      "type": "function"
    },
    {
      "inputs": [
        {
          "internalType": "uint256",
          "name": "",
          "type": "uint256"
        }
      ],
      "name": "salesFeeInPercentForAProject",
      "outputs": [
        {
          "internalType": "uint8",
          "name": "",
          "type": "uint8"
        }
      ],
      "stateMutability": "view",
      "type": "function"
    },
    {
      "inputs": [],
      "name": "teamAddr",
      "outputs": [
        {
          "internalType": "address",
          "name": "",
          "type": "address"
        }
      ],
      "stateMutability": "view",
      "type": "function"
    },
    {
      "inputs": [
        {
          "internalType": "address",
          "name": "newOwner",
          "type": "address"
        }
      ],
      "name": "transferOwnership",
      "outputs": [],
      "stateMutability": "nonpayable",
      "type": "function"
    },
    {
      "inputs": [],
      "name": "upfrontfee",
      "outputs": [
        {
          "internalType": "uint256",
          "name": "",
          "type": "uint256"
        }
      ],
      "stateMutability": "view",
      "type": "function"
    },
    {
      "inputs": [
        {
          "internalType": "address",
          "name": "_address",
          "type": "address"
        }
      ],
      "name": "setFactoryAddr",
      "outputs": [],
      "stateMutability": "nonpayable",
      "type": "function"
    },
    {
      "inputs": [
        {
          "internalType": "address",
          "name": "_address",
          "type": "address"
        }
      ],
      "name": "setRouterAddr",
      "outputs": [],
      "stateMutability": "nonpayable",
      "type": "function"
    },
    {
      "inputs": [
        {
          "internalType": "address",
          "name": "_address",
          "type": "address"
        }
      ],
      "name": "whiteListUsersToStartProject",
      "outputs": [],
      "stateMutability": "nonpayable",
      "type": "function"
    },
    {
      "inputs": [
        {
          "internalType": "uint256",
          "name": "_id",
          "type": "uint256"
        },
        {
          "internalType": "address",
          "name": "_address",
          "type": "address"
        }
      ],
      "name": "whiteListUsersToBuyTokens",
      "outputs": [],
      "stateMutability": "nonpayable",
      "type": "function"
    },
    {
      "inputs": [
        {
          "internalType": "uint256",
          "name": "_upfrontFee",
          "type": "uint256"
        },
        {
          "internalType": "uint8",
          "name": "_salesFeeInPercent",
          "type": "uint8"
        }
      ],
      "name": "updateFees",
      "outputs": [],
      "stateMutability": "nonpayable",
      "type": "function"
    },
    {
      "inputs": [
        {
          "internalType": "uint256",
          "name": "_id",
          "type": "uint256"
        },
        {
          "internalType": "uint8",
          "name": "_fee",
          "type": "uint8"
        }
      ],
      "name": "updateSalesFeeInPercentForAProject",
      "outputs": [],
      "stateMutability": "nonpayable",
      "type": "function"
    },
    {
      "inputs": [
        {
          "internalType": "enum Presale.PresaleType",
          "name": "_presaleType",
          "type": "uint8"
        },
        {
          "internalType": "address",
          "name": "_preSaleContractAddress",
          "type": "address"
        },
        {
          "internalType": "address",
          "name": "_criteriaTokenAddr",
          "type": "address"
        },
        {
          "internalType": "uint8",
          "name": "_reservedTokensPCForLP",
          "type": "uint8"
        },
        {
          "internalType": "uint256",
          "name": "_tokensForSale",
          "type": "uint256"
        },
        {
          "internalType": "uint256",
          "name": "_priceOfEachToken",
          "type": "uint256"
        },
        {
          "internalType": "uint256",
          "name": "_minTokensForParticipation",
          "type": "uint256"
        },
        {
          "components": [
            {
              "internalType": "uint256",
              "name": "startedAt",
              "type": "uint256"
            },
            {
              "internalType": "uint256",
              "name": "expiredAt",
              "type": "uint256"
            }
          ],
          "internalType": "struct Presale.PresaleTimes",
          "name": "_presaleTimes",
          "type": "tuple"
        },
        {
          "components": [
            {
              "internalType": "uint256",
              "name": "minTokensReq",
              "type": "uint256"
            },
            {
              "internalType": "uint256",
              "name": "maxTokensReq",
              "type": "uint256"
            }
          ],
          "internalType": "struct Presale.ReqestedTokens",
          "name": "_reqestedTokens",
          "type": "tuple"
        },
        {
          "internalType": "uint256",
          "name": "_softCap",
          "type": "uint256"
        }
      ],
      "name": "setPresale",
      "outputs": [
        {
          "internalType": "uint256",
          "name": "",
          "type": "uint256"
        }
      ],
      "stateMutability": "payable",
      "type": "function"
    },
    {
      "inputs": [
        {
          "internalType": "uint256",
          "name": "_id",
          "type": "uint256"
        }
      ],
      "name": "deletePresaleContractInfo",
      "outputs": [],
      "stateMutability": "nonpayable",
      "type": "function"
    },
    {
      "inputs": [
        {
          "internalType": "uint256",
          "name": "_id",
          "type": "uint256"
        },
        {
          "internalType": "uint256",
          "name": "_numOfTokensRequested",
          "type": "uint256"
        }
      ],
      "name": "buyTokensOnPresale",
      "outputs": [],
      "stateMutability": "payable",
      "type": "function"
    },
    {
      "inputs": [
        {
          "internalType": "uint256",
          "name": "_id",
          "type": "uint256"
        }
      ],
      "name": "claimTokensOrARefund",
      "outputs": [],
      "stateMutability": "nonpayable",
      "type": "function"
    },
    {
      "inputs": [
        {
          "internalType": "uint256",
          "name": "_id",
          "type": "uint256"
        }
      ],
      "name": "endPresale",
      "outputs": [
        {
          "internalType": "uint256",
          "name": "",
          "type": "uint256"
        },
        {
          "internalType": "uint256",
          "name": "",
          "type": "uint256"
        },
        {
          "internalType": "uint256",
          "name": "",
          "type": "uint256"
        }
      ],
      "stateMutability": "nonpayable",
      "type": "function"
    },
    {
      "inputs": [
        {
          "internalType": "uint256",
          "name": "_id",
          "type": "uint256"
        },
        {
          "internalType": "enum Presale.Withdrawtype",
          "name": "_withdrawtype",
          "type": "uint8"
        }
      ],
      "name": "burnOrWithdrawTokens",
      "outputs": [],
      "stateMutability": "nonpayable",
      "type": "function"
    },
    {
      "inputs": [],
      "name": "BNBbalanceOfContract",
      "outputs": [
        {
          "internalType": "uint256",
          "name": "",
          "type": "uint256"
        }
      ],
      "stateMutability": "view",
      "type": "function"
    },
    {
      "inputs": [
        {
          "internalType": "uint256",
          "name": "_id",
          "type": "uint256"
        },
        {
          "internalType": "uint256",
          "name": "_starttime",
          "type": "uint256"
        },
        {
          "internalType": "uint256",
          "name": "_endTime",
          "type": "uint256"
        }
      ],
      "name": "updatePresaleTime",
      "outputs": [],
      "stateMutability": "nonpayable",
      "type": "function"
    },
    {
      "inputs": [
        {
          "internalType": "uint256",
          "name": "_id",
          "type": "uint256"
        },
        {
          "internalType": "uint256",
          "name": "_priceOfEachToken",
          "type": "uint256"
        },
        {
          "internalType": "uint256",
          "name": "_minTokensReq",
          "type": "uint256"
        },
        {
          "internalType": "uint256",
          "name": "_maxTokensReq",
          "type": "uint256"
        },
        {
          "internalType": "uint256",
          "name": "_softCap",
          "type": "uint256"
        }
      ],
      "name": "updateParticipationCriteria",
      "outputs": [],
      "stateMutability": "nonpayable",
      "type": "function"
    },
    {
      "inputs": [
        {
          "internalType": "address",
          "name": "_teamAddr",
          "type": "address"
        }
      ],
      "name": "updateteamAddr",
      "outputs": [],
      "stateMutability": "nonpayable",
      "type": "function"
    },
    {
      "inputs": [
        {
          "internalType": "uint256",
          "name": "_id",
          "type": "uint256"
        }
      ],
      "name": "preSaleTokenBalanceOfContract",
      "outputs": [
        {
          "internalType": "uint256",
          "name": "",
          "type": "uint256"
        }
      ],
      "stateMutability": "view",
      "type": "function"
    },
    {
      "inputs": [
        {
          "internalType": "uint256",
          "name": "_id",
          "type": "uint256"
        }
      ],
      "name": "preSaleTokenBalanceOfUser",
      "outputs": [
        {
          "internalType": "uint256",
          "name": "",
          "type": "uint256"
        }
      ],
      "stateMutability": "view",
      "type": "function"
    },
    {
      "inputs": [
        {
          "internalType": "uint256",
          "name": "_id",
          "type": "uint256"
        }
      ],
      "name": "criteriaTokenBalanceOfUser",
      "outputs": [
        {
          "internalType": "uint256",
          "name": "",
          "type": "uint256"
        }
      ],
      "stateMutability": "view",
      "type": "function"
    }
  ],
  "bytecode": "0x60806040526000600155606460025560038054742d46c1ec25e1db2a630150693121e67e67918dc5026001600160a81b0319909116179055600480546001600160a01b0319908116732142d14085e48edbe0c92522bf41bc8fd687f4ac17909155600580548216736725f303b657a9451d8ba641348b6761a6cc7a1717905560068054821673d99d1c33f9fc3444f8101754abc46c52416550d11790556007805490911673ae13d989dac2f0debff460ac112a837c89baa7cd179055348015620000c857600080fd5b50620000d433620000da565b6200012a565b600080546001600160a01b038381166001600160a01b0319831681178455604051919092169283917f8be0079c531659141344cd1fd0a4f28419497f9722a3daafe3b4186f6b6457e09190a35050565b613881806200013a6000396000f3fe6080604052600436106101a95760003560e01c8062152506146101ae578063015c19b8146101c357806306661abd146101e35780630b5a01fa1461020c5780630f4240061461022c578063134f54b5146102595780631678cdd6146102795780631c1f4ff91461028c5780631de0ab73146102cc5780633e474d66146102ec5780633f647b5e1461030c5780634a5ff749146103555780635ebb3cda1461037a57806366d7c9bf146103bc57806370189b6f146103cf578063715018a6146103ef57806375e23a64146104045780637a61920514610424578063806d2eed1461044457806388e81f48146104de5780638da5cb5b146104fe5780639edf96cb14610513578063a1398e191461054e578063ab005ce31461056e578063b8612eab1461058e578063c0a527bd146105f5578063cedfe42f14610682578063cf873677146106a2578063da09c72c146106c2578063da3606be146106e2578063dc5744ad14610702578063df1481641461071c578063e64a0a811461073c578063e6e762001461075c578063eec5dab71461077c578063f2fde38b14610792578063fd408454146107b2575b600080fd5b6101c16101bc3660046131d8565b610844565b005b3480156101cf57600080fd5b506101c16101de366004613216565b611029565b3480156101ef57600080fd5b506101f960015481565b6040519081526020015b60405180910390f35b34801561021857600080fd5b506101c1610227366004613242565b611098565b34801561023857600080fd5b5060055461024c906001600160a01b031681565b604051610203919061325d565b34801561026557600080fd5b5060065461024c906001600160a01b031681565b34801561028557600080fd5b50476101f9565b34801561029857600080fd5b506102bc6102a7366004613242565b600d6020526000908152604090205460ff1681565b6040519015158152602001610203565b3480156102d857600080fd5b506101c16102e7366004613242565b6110e9565b3480156102f857600080fd5b506101c1610307366004613242565b61113a565b34801561031857600080fd5b50610340610327366004613271565b6009602052600090815260409020805460019091015482565b60408051928352602083019190915201610203565b34801561036157600080fd5b5060035461024c9061010090046001600160a01b031681565b34801561038657600080fd5b506103aa610395366004613271565b600b6020526000908152604090205460ff1681565b60405160ff9091168152602001610203565b6101f96103ca3660046132f7565b611191565b3480156103db57600080fd5b506101c16103ea36600461339d565b6119f2565b3480156103fb57600080fd5b506101c1611e0c565b34801561041057600080fd5b506101c161041f3660046133d1565b611e47565b34801561043057600080fd5b506101f961043f366004613271565b611f7e565b34801561045057600080fd5b506104cc61045f366004613271565b600a6020908152600091825260409182902080546001820154600283015485518087018752600385015481526004850154818701526005850154875180890190985260068601548852600790950154958701959095526001600160a01b0392831695919092169391929086565b6040516102039695949392919061340c565b3480156104ea57600080fd5b506101c16104f9366004613242565b612001565b34801561050a57600080fd5b5061024c612054565b34801561051f57600080fd5b5061053361052e366004613271565b612063565b60408051938452602084019290925290820152606001610203565b34801561055a57600080fd5b506101c1610569366004613466565b6125bb565b34801561057a57600080fd5b506101c1610589366004613271565b61260c565b34801561059a57600080fd5b506105d86105a9366004613216565b600e60209081526000928352604080842090915290825290208054600182015460029092015490919060ff1683565b604080519384526020840192909252151590820152606001610203565b34801561060157600080fd5b5061064d610610366004613271565b600c602052600090815260409020805460018201546002830154600384015460048501546005860154600690960154949593949293919290919087565b604080519788526020880196909652948601939093526060850191909152608084015260a083015260c082015260e001610203565b34801561068e57600080fd5b5060075461024c906001600160a01b031681565b3480156106ae57600080fd5b506101c16106bd366004613489565b6127c7565b3480156106ce57600080fd5b5060045461024c906001600160a01b031681565b3480156106ee57600080fd5b506101c16106fd366004613466565b6128a7565b34801561070e57600080fd5b506003546103aa9060ff1681565b34801561072857600080fd5b506101f9610737366004613271565b6128f1565b34801561074857600080fd5b506101f9610757366004613271565b612931565b34801561076857600080fd5b506101c1610777366004613271565b612970565b34801561078857600080fd5b506101f960025481565b34801561079e57600080fd5b506101c16107ad366004613242565b612e0b565b3480156107be57600080fd5b5061082e6107cd366004613271565b6008602052600090815260409020805460018201546002830154600384015460048501546005860154600687015460079097015460ff808816986001600160a01b0361010090990489169897881697909290811691600160a01b909104168a565b6040516102039a999897969594939291906134cb565b600082815260086020526040902054829061010090046001600160a01b03166108885760405162461bcd60e51b815260040161087f9061354c565b60405180910390fd5b6000838152600a602052604090206006015483904210156108f95760405162461bcd60e51b815260206004820152602560248201527f50726573616c65206861736e277420626567696e207965742e20706c65617365604482015264081dd85a5d60da1b606482015260840161087f565b6000818152600a602052604090206007015442106109595760405162461bcd60e51b815260206004820152601e60248201527f50726573616c65206973206f7665722e20547279206e6578742074696d650000604482015260640161087f565b60008082815260086020526040902060070154600160a01b900460ff166003811115610987576109876134b5565b14156109b0576000818152600860205260409020600701805460ff60a01b1916600160a01b1790555b6001600082815260086020526040902060070154600160a01b900460ff1660038111156109df576109df6134b5565b146109fc5760405162461bcd60e51b815260040161087f90613574565b600084815260086020526040808220815161014081019092528054829060ff166002811115610a2d57610a2d6134b5565b6002811115610a3e57610a3e6134b5565b815281546001600160a01b036101009182900481166020840152600184015481166040840152600284015460608401526003808501546080850152600485015460a0850152600585015460c0850152600685015460e08501526007850154918216928401929092526101209092019160ff600160a01b9091041690811115610ac857610ac86134b5565b6003811115610ad957610ad96134b5565b9052506000868152600a60209081526040808320815160c0808201845282546001600160a01b039081168352600180850154909116838701526002808501548487015285518087018752600386015481526004860154818901526060808601919091526005860154608086015286518088018852600687015481526007909601548689015260a08501959095528d8852600e875285882033895287529685902085519485018652805485529081015495840195909552939094015460ff16151591810191909152908301519293509091610bec5760405162461bcd60e51b81526020600482015260146024820152731d1a19481cd85b19481a5cc81cdbdb19081bdd5d60621b604482015260640161087f565b600183516002811115610c0157610c016134b5565b1415610c7c5760408101511515600114610c775760405162461bcd60e51b815260206004820152603160248201527f4f6e6c792077686974656c69737465642075736572732061726520616c6c6f77604482015270656420746f20706172746963697061746560781b606482015260840161087f565b610d69565b600283516002811115610c9157610c916134b5565b1415610d6957816040015182602001516001600160a01b03166370a08231336040518263ffffffff1660e01b8152600401610ccc919061325d565b602060405180830381865afa158015610ce9573d6000803e3d6000fd5b505050506040513d601f19601f82011682018060405250810190610d0d91906135a8565b1015610d695760405162461bcd60e51b815260206004820152602560248201527f596f7520646f6e277420686f6c6420656e6f75676820637269746572696120746044820152646f6b656e7360d81b606482015260840161087f565b8260c00151861115610dcf5760405162461bcd60e51b815260206004820152602960248201527f696e73756666696369656e7420746f6b656e7320746f2066756c66696c6c20746044820152683434b99037b93232b960b91b606482015260840161087f565b6060830151610dde90876135d7565b341015610e225760405162461bcd60e51b8152602060048201526012602482015271696e73756666696369656e742066756e647360701b604482015260640161087f565b6020810151610ec7576000878152600960205260408120805491610e45836135f6565b9091555050606082015151861015610ec7576040805162461bcd60e51b81526020600482015260248101919091527f5265717565737420666f7220746f6b656e73206973206c6f772c20506c65617360448201527f652072657175657374206d6f7265207468616e206d696e546f6b656e73526571606482015260840161087f565b816060015160200151816020015187610ee09190613611565b1115610f5e5760405162461bcd60e51b815260206004820152604160248201527f5265717565737420666f7220746f6b656e7320697320686967682c20506c656160448201527f73652072657175657374206c657373207468616e206d6178546f6b656e7352656064820152607160f81b608482015260a40161087f565b60e0830151610f6d9034612eab565b60008881526008602052604090206006015560c0830151610f8e9087612ebe565b6000888152600860205260408120600501919091558151610faf9034612eab565b90506000610fca888460200151612eab90919063ffffffff16565b60408051606081018252938452602080850192835294810151151584820190815260009b8c52600e8652818c20338d52909552909920915182555096516001880155516002909601805460ff1916961515969096179095555050505050565b60008281526008602052604090206001015482906001600160a01b031633146110645760405162461bcd60e51b815260040161087f90613629565b506000918252600e602090815260408084206001600160a01b0390931684529190529020600201805460ff19166001179055565b336110a1612054565b6001600160a01b0316146110c75760405162461bcd60e51b815260040161087f90613667565b600580546001600160a01b0319166001600160a01b0392909216919091179055565b336110f2612054565b6001600160a01b0316146111185760405162461bcd60e51b815260040161087f90613667565b600680546001600160a01b0319166001600160a01b0392909216919091179055565b33611143612054565b6001600160a01b0316146111695760405162461bcd60e51b815260040161087f90613667565b600380546001600160a01b0390921661010002610100600160a81b0319909216919091179055565b600061119b612054565b6001600160a01b0316336001600160a01b03161461122c57336000908152600d602052604090205460ff1661122c5760025434101561122c5760405162461bcd60e51b815260206004820152602760248201527f496e73756666696369656e742066756e647320746f207374617274207468652060448201526670726573616c6560c81b606482015260840161087f565b60028b6002811115611240576112406134b5565b14156112b7576001600160a01b0389166112b75760405162461bcd60e51b815260206004820152603260248201527f437269746572696120746f6b656e20616464726573732073686f756c646e27746044820152712062652061206e756c6c206164647265737360701b606482015260840161087f565b60328860ff16101580156112cf575060648860ff1611155b6113595760405162461bcd60e51b815260206004820152604f60248201527f546f6b656e7320666f72206c69717569646974792073686f756c64206265206160448201527f74206c6561737420353025206f662074686520746f74616c20746f6b656e732060648201526e6f666665726564206f6e2073616c6560881b608482015260a40161087f565b611364876002612eca565b8210156113835760405162461bcd60e51b815260040161087f9061368a565b6001600160a01b038a166113e75760405162461bcd60e51b815260206004820152602560248201527f50726573616c652070726f6a65637420616464726573732063616e2774206265604482015264081b9d5b1b60da1b606482015260840161087f565b600087116114435760405162461bcd60e51b815260206004820152602360248201527f746f6b656e7320666f722073616c65206d757374206265206d6f72652074686160448201526206e20360ec1b606482015260840161087f565b82516020840151116114975760405162461bcd60e51b815260206004820152601d60248201527f5f6d6178546f6b656e73526571203e205f6d696e546f6b656e73526571000000604482015260640161087f565b6114a342610384613611565b8451101561150d5760405162461bcd60e51b815260206004820152603160248201527f7374617274656441742073686f756c64206265206d6f7265207468616e203135604482015270206d696e757465732066726f6d206e6f7760781b606482015260840161087f565b835161151c9062015180613611565b846020015110156115a05760405162461bcd60e51b815260206004820152604260248201527f65787069727920646174652073686f756c642062652061746c65617374206d6f60448201527f7265207468616e206f6e65206461792066726f6d207374617274696e672074696064820152616d6560f01b608482015260a40161087f565b60006115ba60646115b48a60ff8d16612ed6565b90612eca565b905060006001600160a01b038c166323b872dd33306115d98d87612eab565b6040516001600160e01b031960e086901b1681526001600160a01b03938416600482015292909116602483015260448201526064016020604051808303816000875af115801561162d573d6000803e3d6000fd5b505050506040513d601f19601f8201168201806040525081019061165191906136f2565b9050806116ba5760405162461bcd60e51b815260206004820152603160248201527f556e61626c6520746f207472616e736665722070726573616c6520746f6b656e6044820152701cc81d1bc81d1a194818dbdb9d1c9858dd607a1b606482015260840161087f565b600180549060006116ca836135f6565b91905055506040518061014001604052808e60028111156116ed576116ed6134b5565b81526020018d6001600160a01b03168152602001336001600160a01b031681526020018981526020018a81526020018b60ff1681526020018a81526020016000815260200160006001600160a01b0316815260200160006003811115611755576117556134b5565b90526001805460009081526008602052604090208251815491929091839160ff199091169083600281111561178c5761178c6134b5565b021790555060208201518154610100600160a81b0319166101006001600160a01b03928316810291909117835560408401516001840180546001600160a01b031990811692851692909217905560608501516002850155608085015160038086019190915560a0860151600486015560c0860151600586015560e086015160068601559185015160078501805492831691909416908117845561012086015193926001600160a81b03199092161790600160a01b908490811115611852576118526134b5565b02179055509050506040518060c001604052808d6001600160a01b031681526020018c6001600160a01b0316815260200188815260200186815260200185815260200187815250600a6000600154815260200190815260200160002060008201518160000160006101000a8154816001600160a01b0302191690836001600160a01b0316021790555060208201518160010160006101000a8154816001600160a01b0302191690836001600160a01b0316021790555060408201518160020155606082015181600301600082015181600001556020820151816001015550506080820151816005015560a0820151816006016000820151816000015560208201518160010155505090505060405180604001604052806000815260200160008152506009600060015481526020019081526020016000206000820151816000015560208201518160010155905050600360009054906101000a900460ff16600b6000600154815260200190815260200160002060006101000a81548160ff021916908360ff160217905550600154925050509a9950505050505050505050565b60008281526008602052604090206001015482906001600160a01b03163314611a2d5760405162461bcd60e51b815260040161087f90613629565b600083815260086020526040902054839061010090046001600160a01b0316611a685760405162461bcd60e51b815260040161087f9061354c565b6000848152600c6020526040902060030154611abe5760405162461bcd60e51b81526020600482015260156024820152744e6f20746f6b656e7320746f20776974686472617760581b604482015260640161087f565b600084815260086020526040808220815161014081019092528054829060ff166002811115611aef57611aef6134b5565b6002811115611b0057611b006134b5565b815281546001600160a01b036101009182900481166020840152600184015481166040840152600284015460608401526003808501546080850152600485015460a0850152600585015460c0850152600685015460e08501526007850154918216928401929092526101209092019160ff600160a01b9091041690811115611b8a57611b8a6134b5565b6003811115611b9b57611b9b6134b5565b90525060208101516040516370a0823160e01b8152919250906000906001600160a01b038316906370a0823190611bd690309060040161325d565b602060405180830381865afa158015611bf3573d6000803e3d6000fd5b505050506040513d601f19601f82011682018060405250810190611c1791906135a8565b6000888152600c6020526040902060030154909150811015611c7b5760405162461bcd60e51b815260206004820152601e60248201527f436f6e747261637420686173206e6f2070726573616c6520746f6b656e730000604482015260640161087f565b6001866001811115611c8f57611c8f6134b5565b1415611d4d576000878152600c602052604080822060030154905163a9059cbb60e01b81526001600160a01b0385169163a9059cbb91611cd3913391600401613714565b6020604051808303816000875af1158015611cf2573d6000803e3d6000fd5b505050506040513d601f19601f82011682018060405250810190611d1691906136f2565b905080611d355760405162461bcd60e51b815260040161087f9061372d565b506000878152600c6020526040812060030155611e03565b6000878152600c602052604080822060030154905163a9059cbb60e01b81526001600160a01b0385169163a9059cbb91611d8d9161dead91600401613714565b6020604051808303816000875af1158015611dac573d6000803e3d6000fd5b505050506040513d601f19601f82011682018060405250810190611dd091906136f2565b905080611def5760405162461bcd60e51b815260040161087f9061372d565b506000878152600c60205260408120600301555b50505050505050565b33611e15612054565b6001600160a01b031614611e3b5760405162461bcd60e51b815260040161087f90613667565b611e456000612ee2565b565b60008581526008602052604090206001015485906001600160a01b03163314611e825760405162461bcd60e51b815260040161087f90613629565b600086815260086020526040902054869061010090046001600160a01b0316611ebd5760405162461bcd60e51b815260040161087f9061354c565b60008088815260086020526040902060070154600160a01b900460ff166003811115611eeb57611eeb6134b5565b14611f085760405162461bcd60e51b815260040161087f9061376f565b600087815260086020526040902060030154611f25906002612eca565b831015611f445760405162461bcd60e51b815260040161087f9061368a565b5050600094855260086020908152604080872060020195909555600a90529290932060038101919091556004810192909255600590910155565b6000818152600a60205260408082205490516370a0823160e01b81526001600160a01b03909116906370a0823190611fba90309060040161325d565b602060405180830381865afa158015611fd7573d6000803e3d6000fd5b505050506040513d601f19601f82011682018060405250810190611ffb91906135a8565b92915050565b3361200a612054565b6001600160a01b0316146120305760405162461bcd60e51b815260040161087f90613667565b6001600160a01b03166000908152600d60205260409020805460ff19166001179055565b6000546001600160a01b031690565b6000818152600860205260408120600101548190819084906001600160a01b031633146120a25760405162461bcd60e51b815260040161087f90613629565b600085815260086020526040902054859061010090046001600160a01b03166120dd5760405162461bcd60e51b815260040161087f9061354c565b6001600087815260086020526040902060070154600160a01b900460ff16600381111561210c5761210c6134b5565b146121295760405162461bcd60e51b815260040161087f90613574565b600086815260086020526040808220815161014081019092528054829060ff16600281111561215a5761215a6134b5565b600281111561216b5761216b6134b5565b815281546001600160a01b036101009182900481166020840152600184015481166040840152600284015460608401526003808501546080850152600485015460a0850152600585015460c0850152600685015460e08501526007850154918216928401929092526101209092019160ff600160a01b90910416908111156121f5576121f56134b5565b6003811115612206576122066134b5565b9052506000888152600a602052604090206007015490915042118061222d575060c0810151155b6122735760405162461bcd60e51b8152602060048201526017602482015276141c995cd85b19481a5cc81b9bdd081bdd995c881e595d604a1b604482015260640161087f565b60006122908260c001518360800151612ebe90919063ffffffff16565b6000898152600a602052604090206005015490915081106125455760006122c960646115b48560a0015185612ed690919063ffffffff16565b905060006122d68a612f32565b602085015160065460405163095ea7b360e01b81529293506001600160a01b039182169263095ea7b3926123109216908690600401613714565b6020604051808303816000875af115801561232f573d6000803e3d6000fd5b505050506040513d601f19601f8201168201806040525081019061235391906136f2565b6123c05760405162461bcd60e51b815260206004820152603860248201527f756e61626c6520746f20617070726f766520746f6b656e207472616e666572206044820152773a37903830b731b0b5b2a9bbb0b82937baba32b920b2323960411b606482015260840161087f565b6000806000600660009054906101000a90046001600160a01b03166001600160a01b031663f305d719858960200151886000808d604001514261012c6124069190613611565b60405160e089901b6001600160e01b03191681526001600160a01b039687166004820152602481019590955260448501939093526064840191909152909216608482015260a481019190915260c40160606040518083038185885af1158015612473573d6000803e3d6000fd5b50505050506040513d601f19601f8201168201806040525081019061249891906137c4565b92509250925085600c60008f81526020019081526020016000206000018190555084600c60008f8152602001908152602001600020600201819055506124f460646115b48960a001518a60c00151612ed690919063ffffffff16565b8760c001516125039190613611565b60008e8152600c60209081526040808320600301939093556008905220600701805460ff60a01b1916600160a11b179055919a50985096506125b29350505050565b61256560646115b48460a001518560800151612ed690919063ffffffff16565b82608001516125749190613611565b6000898152600c602090815260408083206003019390935560089052908120600701805460ff60a01b1916600360a01b179055965086955085945050505b50509193909250565b336125c4612054565b6001600160a01b0316146125ea5760405162461bcd60e51b815260040161087f90613667565b6000918252600b6020526040909120805460ff191660ff909216919091179055565b60008181526008602052604090206001015481906001600160a01b031633146126475760405162461bcd60e51b815260040161087f90613629565b600082815260086020526040902054829061010090046001600160a01b03166126825760405162461bcd60e51b815260040161087f9061354c565b60008084815260086020526040902060070154600160a01b900460ff1660038111156126b0576126b06134b5565b146127115760405162461bcd60e51b815260206004820152602b60248201527f50726573616c6520697320696e2070726f67726573732c2063616e277420646560448201526a6c657465206974206e6f7760a81b606482015260840161087f565b5050600090815260086020908152604080832080546001600160a81b03199081168255600180830180546001600160a01b03199081169091556002808501889055600380860189905560048087018a905560058088018b905560068089018c90556007988901805490981690975560098a52888b208b815586018b9055600a9099529689208054841681559384018054909316909255820187905581018690559283018590559282018490559181018390550155565b60008381526008602052604090206001015483906001600160a01b031633146128025760405162461bcd60e51b815260040161087f90613629565b600084815260086020526040902054849061010090046001600160a01b031661283d5760405162461bcd60e51b815260040161087f9061354c565b60008086815260086020526040902060070154600160a01b900460ff16600381111561286b5761286b6134b5565b146128885760405162461bcd60e51b815260040161087f9061376f565b50506000928352600a6020526040909220600681019190915560070155565b336128b0612054565b6001600160a01b0316146128d65760405162461bcd60e51b815260040161087f90613667565b6002919091556003805460ff191660ff909216919091179055565b6000818152600860205260408082205490516370a0823160e01b81526101009091046001600160a01b0316906370a0823190611fba90339060040161325d565b6000818152600a60205260408082206001015490516370a0823160e01b81526001600160a01b03909116906370a0823190611fba90339060040161325d565b600081815260086020526040902054819061010090046001600160a01b03166129ab5760405162461bcd60e51b815260040161087f9061354c565b6000828152600e60209081526040808320338452825280832081516060810183528154815260018201548185015260029091015460ff9081161515828401528685526008909352908320600701549092600160a01b90910490911690612a1085611f7e565b90506002826003811115612a2657612a266134b5565b1480612a4357506003826003811115612a4157612a416134b5565b145b612a8e5760405162461bcd60e51b815260206004820152601c60248201527b141c995cd85b19481a5cc81b9bdd0818dbdb98db1d591959081e595d60221b604482015260640161087f565b6002826003811115612aa257612aa26134b5565b1415612cac576000836020015111612af15760405162461bcd60e51b81526020600482015260126024820152714e6f20746f6b656e7320746f20636c61696d60701b604482015260640161087f565b8083602001511115612b455760405162461bcd60e51b815260206004820152601f60248201527f4e6f7420656e6f75676820746f6b656e732061726520617661696c61626c6500604482015260640161087f565b6000858152600a602090815260408083205491860151905163a9059cbb60e01b81526001600160a01b039092169163a9059cbb91612b8891339190600401613714565b6020604051808303816000875af1158015612ba7573d6000803e3d6000fd5b505050506040513d601f19601f82011682018060405250810190612bcb91906136f2565b905080612c2f5760405162461bcd60e51b815260206004820152602c60248201527f556e61626c6520746f207472616e7366657220746f6b656e7320746f2074686560448201526b081c185c9d1a58da5c185b9d60a21b606482015260840161087f565b60408051606081018252600080825260208083018281528885015115158486019081528b8452600e8352858420338552835285842094518555905160018086019190915590516002909401805460ff1916941515949094179093558982526009905291822001805491612ca1836135f6565b919050555050612e04565b6003826003811115612cc057612cc06134b5565b1415612e04578251612d0a5760405162461bcd60e51b8152602060048201526013602482015272139bc8185b5bdd5b9d081d1bc81c99599d5b99606a1b604482015260640161087f565b8251604051600091339181156108fc02919084818181858888f19350505050905080612d8b5760405162461bcd60e51b815260206004820152602a60248201527f556e61626c6520746f20726566756e6420616d6f756e7420746f207468652070604482015269185c9d1a58da5c185b9d60b21b606482015260840161087f565b60408051606081018252600080825260208083018281528885015115158486019081528b8452600e8352858420338552835285842094518555905160018086019190915590516002909401805460ff1916941515949094179093558982526009905291822001805491612dfd836135f6565b9190505550505b5050505050565b33612e14612054565b6001600160a01b031614612e3a5760405162461bcd60e51b815260040161087f90613667565b6001600160a01b038116612e9f5760405162461bcd60e51b815260206004820152602660248201527f4f776e61626c653a206e6577206f776e657220697320746865207a65726f206160448201526564647265737360d01b606482015260840161087f565b612ea881612ee2565b50565b6000612eb78284613611565b9392505050565b6000612eb782846137f2565b6000612eb78284613809565b6000612eb782846135d7565b600080546001600160a01b038381166001600160a01b0319831681178455604051919092169283917f8be0079c531659141344cd1fd0a4f28419497f9722a3daafe3b4186f6b6457e09190a35050565b60008181526008602052604080822081516101408101909252805483929190829060ff166002811115612f6757612f676134b5565b6002811115612f7857612f786134b5565b815281546001600160a01b036101009182900481166020840152600184015481166040840152600284015460608401526003808501546080850152600485015460a0850152600585015460c0850152600685015460e08501526007850154918216928401929092526101209092019160ff600160a01b9091041690811115613002576130026134b5565b6003811115613013576130136134b5565b90525060e0810151909150806130695760405162461bcd60e51b815260206004820152601b60248201527a4e6f20726576656e756520746f20616464206c697175696469747960281b604482015260640161087f565b6000848152600b602052604081205461308d906064906115b490859060ff16612ed6565b905060006130ad60646115b48660a0015186612ed690919063ffffffff16565b905060006130c56130be8385612eab565b8590612ebe565b905084604001516001600160a01b03166108fc829081150290604051600060405180830381858888f19350505050158015613104573d6000803e3d6000fd5b50600061311760646115b486604b612ed6565b6004546040519192506001600160a01b03169082156108fc029083906000818181858888f19350505050158015613152573d6000803e3d6000fd5b50600061315f8583612ebe565b60035460405191925061010090046001600160a01b0316906108fc8315029083906000818181858888f1935050505015801561319f573d6000803e3d6000fd5b5050506000968752600c602052604090962060018101939093556004830181905560058301919091556006909101939093555090919050565b600080604083850312156131eb57600080fd5b50508035926020909101359150565b80356001600160a01b038116811461321157600080fd5b919050565b6000806040838503121561322957600080fd5b82359150613239602084016131fa565b90509250929050565b60006020828403121561325457600080fd5b612eb7826131fa565b6001600160a01b0391909116815260200190565b60006020828403121561328357600080fd5b5035919050565b803560ff8116811461321157600080fd5b6000604082840312156132ad57600080fd5b604080519081016001600160401b03811182821017156132dd57634e487b7160e01b600052604160045260246000fd5b604052823581526020928301359281019290925250919050565b6000806000806000806000806000806101808b8d03121561331757600080fd5b8a356003811061332657600080fd5b995061333460208c016131fa565b985061334260408c016131fa565b975061335060608c0161328a565b965060808b0135955060a08b0135945060c08b013593506133748c60e08d0161329b565b92506133848c6101208d0161329b565b91506101608b013590509295989b9194979a5092959850565b600080604083850312156133b057600080fd5b823591506020830135600281106133c657600080fd5b809150509250929050565b600080600080600060a086880312156133e957600080fd5b505083359560208501359550604085013594606081013594506080013592509050565b6001600160a01b03878116825286166020820152604081018590526101008101613443606083018680518252602090810151910152565b60a08201849052825160c0830152602083015160e0830152979650505050505050565b6000806040838503121561347957600080fd5b823591506132396020840161328a565b60008060006060848603121561349e57600080fd5b505081359360208301359350604090920135919050565b634e487b7160e01b600052602160045260246000fd5b610140810160038c106134e0576134e06134b5565b8b82526001600160a01b038b811660208401528a81166040840152606083018a90526080830189905260a0830188905260c0830187905260e08301869052841661010083015260048310613536576135366134b5565b826101208301529b9a5050505050505050505050565b6020808252600e908201526d139bdd0818481d985b1a5908125160921b604082015260600190565b6020808252601a908201527950726573616c65206973206e6f7420696e2070726f677265737360301b604082015260600190565b6000602082840312156135ba57600080fd5b5051919050565b634e487b7160e01b600052601160045260246000fd5b60008160001904831182151516156135f1576135f16135c1565b500290565b600060001982141561360a5761360a6135c1565b5060010190565b60008219821115613624576136246135c1565b500190565b602080825260309082015260008051602061382c83398151915260408201526f206f6620746869732070726573616c6560801b606082015260800190565b60208082528181015260008051602061382c833981519152604082015260600190565b60208082526042908201527f736f66746361702073686f756c64206265206174206c6561737420353025206f60408201527f662074686520746f74616c20746f6b656e73206f666665726564206f6e2073616060820152616c6560f01b608082015260a00190565b60006020828403121561370457600080fd5b81518015158114612eb757600080fd5b6001600160a01b03929092168252602082015260400190565b60208082526022908201527f756e61626c6520746f2073656e6420746f6b656e7320746f20746865206f776e60408201526132b960f11b606082015260800190565b60208082526035908201527f50726573616c6520697320696e2070726f67726573732c20796f752063616e2760408201527474206368616e6765206372697465726961206e6f7760581b606082015260800190565b6000806000606084860312156137d957600080fd5b8351925060208401519150604084015190509250925092565b600082821015613804576138046135c1565b500390565b60008261382657634e487b7160e01b600052601260045260246000fd5b50049056fe4f776e61626c653a2063616c6c6572206973206e6f7420746865206f776e6572a26469706673582212206e1713416ead16b95b828ccf635d1aa035e6992b5de816a78efa9e48703a828964736f6c634300080b0033",
  "immutableReferences": {},
  "source": "//SPDX-License-Identifier: Unlicense\r\npragma solidity ^0.8.0;\r\n\r\nimport \"./Ownable.sol\";\r\nimport \"./interfaces/IERC20.sol\";\r\nimport \"./interfaces/IPancakeRouter02.sol\";\r\nimport \"./interfaces/IPancakeFactory.sol\";\r\nimport \"./library/SafeMath.sol\";\r\n\r\n// import \"./SalesTracker.sol\";\r\n\r\ncontract Presale is Ownable{\r\n\r\n    using SafeMath for uint256;\r\n\r\n    uint public count = 0;\r\n    uint public upfrontfee = 100;\r\n    uint8 public salesFeeInPercent = 2;\r\n\r\n    // Declare a set state variable    \r\n    address public teamAddr = 0x2D46C1eC25E1dB2A630150693121E67e67918Dc5;\r\n    address public devAddr = 0x2142d14085e48eDbE0C92522bf41Bc8Fd687f4Ac;\r\n    \r\n    //# PancakeSwap on BSC mainnet\r\n    // address pancakeSwapFactoryAddr = 0xcA143Ce32Fe78f1f7019d7d551a6402fC5350c73;\r\n    // address pancakeSwapRouterAddr = 0x10ED43C718714eb63d5aA57B78B54704E256024E;\r\n    // address WBNBAddr = 0xbb4cdb9cbd36b01bd1cbaebf2de08d9173bc095c;\r\n      \r\n    //# PancakeSwap on BSC testnet:\r\n    address public pancakeSwapFactoryAddr = 0x6725F303b657a9451d8BA641348b6761A6CC7a17;\r\n    address public pancakeSwapRouterAddr = 0xD99D1c33F9fC3444f8101754aBC46c52416550D1;\r\n    address public WBNBAddr = 0xae13d989daC2f0dEbFf460aC112a837C89BAa7cd;    \r\n\r\n    ////////////////////////////// MAPPINGS ///////////////////////////////////\r\n\r\n    mapping(uint256 => PresaleInfo) public presaleInfo;\r\n    mapping(uint256 => PresalectCounts) public presalectCounts;\r\n    mapping(uint256 => PresaleParticipationCriteria) public presaleParticipationCriteria;\r\n    mapping(uint256 => uint8) public salesFeeInPercentForAProject;\r\n\r\n    mapping(uint256 => InternalData) public internalData;\r\n    mapping(address => bool) public isUserWhitelistedToStartProject;\r\n    mapping(uint256 => mapping(address => Participant)) public participant;\r\n\r\n    ////////////////////////////// ENUMS ///////////////////////////////////\r\n\r\n    enum PresaleType {open, onlyWhiteListed, onlyTokenHolders}\r\n    enum PreSaleStatus {pending, inProgress, succeed, failed}\r\n    enum Withdrawtype {burn, withdraw}\r\n\r\n    ////////////////////////////// STRUCTS ///////////////////////////////////\r\n\r\n    struct InternalData {\r\n        uint totalTokensSold;\r\n        uint revenueFromPresale;\r\n        uint tokensAddedToLiquidity;\r\n        uint extraTokens;\r\n        uint poolShareBNB;\r\n        uint devTeamShareBNB;\r\n        uint ownersShareBNB;\r\n    }\r\n\r\n    struct Participant {\r\n        uint256 value;\r\n        uint256 tokens;\r\n        bool whiteListed;\r\n    }\r\n    \r\n    struct PresaleTimes{\r\n        uint256 startedAt;\r\n        uint256 expiredAt;\r\n    }\r\n\r\n    struct ReqestedTokens{\r\n        uint256 minTokensReq;\r\n        uint256 maxTokensReq;\r\n    }\r\n\r\n    struct PresalectCounts {\r\n        uint256 participantsCount;\r\n        uint256 claimsCount;\r\n    }\r\n    \r\n    struct PresaleInfo {\r\n        // Contract Info\r\n        PresaleType typeOfPresale;\r\n        address preSaleContractAddr;\r\n        address presaleOwnerAddr;\r\n        \r\n        // Token distribution\r\n        uint256 priceOfEachToken;\r\n        uint256 tokensForSale;              // 1000\r\n        uint256 reservedTokensPCForLP;      // 70% = 0.7   =>   1700/1.7 = 700\r\n        uint256 remainingTokensForSale;\r\n        uint256 accumulatedBalance;\r\n        address pairAddress;\r\n        PreSaleStatus preSaleStatus;\r\n    }\r\n\r\n    struct PresaleParticipationCriteria {\r\n        // Contract Info\r\n        address preSaleContractAddr;\r\n        \r\n        // Participation Criteria\r\n        address criteriaTokenAddr;\r\n        uint256 minTokensForParticipation;\r\n        ReqestedTokens reqestedTokens;\r\n        uint256 softCap;\r\n        PresaleTimes presaleTimes;  \r\n    }    \r\n\r\n    ////////////////////////////// MODIFIRES //////////////////////////////\r\n\r\n    modifier isIDValid(uint _id) {\r\n        require (presaleInfo[_id].preSaleContractAddr != address(0), \"Not a valid ID\");\r\n        _;\r\n    }\r\n\r\n    modifier isPresaleActive(uint _id) {\r\n        require (block.timestamp >= presaleParticipationCriteria[_id].presaleTimes.startedAt, \"Presale hasn't begin yet. please wait\");\r\n        require( block.timestamp < presaleParticipationCriteria[_id].presaleTimes.expiredAt, \"Presale is over. Try next time\");\r\n        if(presaleInfo[_id].preSaleStatus == PreSaleStatus.pending){\r\n            presaleInfo[_id].preSaleStatus = PreSaleStatus.inProgress;\r\n        }\r\n        require(presaleInfo[_id].preSaleStatus == PreSaleStatus.inProgress, \"Presale is not in progress\");\r\n        _;\r\n    }\r\n\r\n    modifier onlyPresaleOwner(uint _id) {\r\n        require(presaleInfo[_id].presaleOwnerAddr == _msgSender(), \"Ownable: caller is not the owner of this presale\");\r\n        _;\r\n    }\r\n\r\n    ////////////////////////////// FUNCTIONS ///////////////////////////////////\r\n\r\n    function setFactoryAddr(address _address) public onlyOwner {\r\n        pancakeSwapFactoryAddr = _address;\r\n    } \r\n\r\n    function setRouterAddr(address _address) public onlyOwner {\r\n        pancakeSwapRouterAddr = _address;\r\n    }\r\n\r\n    function whiteListUsersToStartProject(address _address) public onlyOwner {\r\n        isUserWhitelistedToStartProject[_address] = true;\r\n    }\r\n\r\n    function whiteListUsersToBuyTokens(uint _id, address _address) public onlyPresaleOwner(_id) {\r\n        participant[_id][_address].whiteListed = true;\r\n    }\r\n\r\n    function updateFees(uint _upfrontFee, uint8 _salesFeeInPercent) public onlyOwner {\r\n        upfrontfee = _upfrontFee;\r\n        salesFeeInPercent = _salesFeeInPercent;\r\n    }\r\n\r\n    function updateSalesFeeInPercentForAProject(uint _id, uint8 _fee) public onlyOwner {\r\n        salesFeeInPercentForAProject[_id] = _fee;\r\n    }\r\n\r\n    function setPresale(\r\n        // Contract Info\r\n        PresaleType _presaleType,\r\n        address _preSaleContractAddress,\r\n        address _criteriaTokenAddr,\r\n        uint8 _reservedTokensPCForLP,\r\n        uint256 _tokensForSale,\r\n\r\n        // Participation Criteria\r\n        uint256 _priceOfEachToken,\r\n        uint256 _minTokensForParticipation,\r\n        PresaleTimes memory _presaleTimes,\r\n        ReqestedTokens memory _reqestedTokens,\r\n        uint256 _softCap\r\n\r\n        ) payable public returns(uint){\r\n\r\n        if( msg.sender != owner() ){\r\n            if(!isUserWhitelistedToStartProject[msg.sender]){\r\n                require( msg.value >= upfrontfee, \"Insufficient funds to start the presale\");\r\n            }\r\n        }\r\n        \r\n        if(_presaleType == PresaleType.onlyTokenHolders){\r\n            require( _criteriaTokenAddr != address(0), \"Criteria token address shouldn't be a null address\");\r\n        }\r\n\r\n        require( _reservedTokensPCForLP >= 50 && _reservedTokensPCForLP <= 100, \"Tokens for liquidity should be at least 50% of the total tokens offered on sale\");\r\n        require( _softCap >= _tokensForSale.div(2), \"softcap should be at least 50% of the total tokens offered on sale\");\r\n        \r\n        require( _preSaleContractAddress != address(0), \"Presale project address can't be null\");\r\n        require( _tokensForSale > 0, \"tokens for sale must be more than 0\");\r\n\r\n        require( _reqestedTokens.maxTokensReq > _reqestedTokens.minTokensReq, \"_maxTokensReq > _minTokensReq\");\r\n\r\n        require( _presaleTimes.startedAt >= block.timestamp + 15 minutes, \"startedAt should be more than 15 minutes from now\" );\r\n        require( _presaleTimes.expiredAt >= _presaleTimes.startedAt + 1 days, \"expiry date should be atleast more than one day from starting time\");\r\n        \r\n        uint reservedTokens = _tokensForSale.mul(_reservedTokensPCForLP).div(100);\r\n        bool transfer = IERC20(_preSaleContractAddress).transferFrom(msg.sender, address(this), _tokensForSale.add(reservedTokens));\r\n        require( transfer, \"Unable to transfer presale tokens to the contract\");\r\n\r\n        count++;\r\n        \r\n        // address _address = IPancakeFactory(pancakeSwapFactoryAddr).createPair(_preSaleContractAddress, WBNBAddr);\r\n\r\n        presaleInfo[count] = PresaleInfo(\r\n            _presaleType,\r\n            _preSaleContractAddress,\r\n            msg.sender,\r\n\r\n            _priceOfEachToken,\r\n            _tokensForSale,                     // 1000    tokensForSale\r\n            _reservedTokensPCForLP,\r\n            _tokensForSale,                     // remainingTokensForSale = tokensForSale (initially)\r\n            0,\r\n            address(0),\r\n            // _address,\r\n            PreSaleStatus.pending\r\n        );\r\n\r\n        presaleParticipationCriteria[count] = PresaleParticipationCriteria(\r\n            _preSaleContractAddress,\r\n            _criteriaTokenAddr,\r\n            _minTokensForParticipation,\r\n            _reqestedTokens,\r\n            _softCap,\r\n            _presaleTimes\r\n        );\r\n\r\n        presalectCounts[count] = PresalectCounts (\r\n            0,\r\n            0\r\n        );\r\n\r\n        salesFeeInPercentForAProject[count] = salesFeeInPercent;       \r\n        return count;\r\n    }\r\n\r\n    function deletePresaleContractInfo (uint256 _id) public onlyPresaleOwner(_id) isIDValid(_id){\r\n        require(presaleInfo[_id].preSaleStatus == PreSaleStatus.pending, \"Presale is in progress, can't delete it now\");\r\n        delete presaleInfo[_id];\r\n        delete presalectCounts[_id];\r\n        delete presaleParticipationCriteria[_id];\r\n        // removeActiveSale(_id);\r\n    }\r\n\r\n    function buyTokensOnPresale(uint256 _id, uint256 _numOfTokensRequested) payable public isIDValid(_id) isPresaleActive(_id)  {\r\n\r\n        PresaleInfo memory info = presaleInfo[_id];\r\n        PresaleParticipationCriteria memory criteria = presaleParticipationCriteria[_id];\r\n        Participant memory currentParticipant = participant[_id][msg.sender];\r\n\r\n        require(info.remainingTokensForSale > 0 , \"the sale is sold out\");\r\n\r\n        if(info.typeOfPresale == PresaleType.onlyWhiteListed){\r\n            require( currentParticipant.whiteListed == true, \"Only whitelisted users are allowed to participate\");\r\n        }\r\n        else if(info.typeOfPresale == PresaleType.onlyTokenHolders){\r\n            require(IERC20(criteria.criteriaTokenAddr).balanceOf(msg.sender) >= criteria.minTokensForParticipation, \"You don't hold enough criteria tokens\");\r\n        }\r\n\r\n        require(_numOfTokensRequested <= info.remainingTokensForSale, \"insufficient tokens to fulfill this order\");\r\n        require(msg.value >= _numOfTokensRequested*info.priceOfEachToken, \"insufficient funds\");\r\n        \r\n        if(currentParticipant.tokens == 0){\r\n            presalectCounts[_id].participantsCount++;\r\n            require(_numOfTokensRequested >= criteria.reqestedTokens.minTokensReq, \"Request for tokens is low, Please request more than minTokensReq\");\r\n        }\r\n        require(_numOfTokensRequested + currentParticipant.tokens <= criteria.reqestedTokens.maxTokensReq, \"Request for tokens is high, Please request less than maxTokensReq\");\r\n        \r\n\r\n        presaleInfo[_id].accumulatedBalance = info.accumulatedBalance.add(msg.value);\r\n        presaleInfo[_id].remainingTokensForSale = info.remainingTokensForSale.sub(_numOfTokensRequested);\r\n\r\n        uint newValue = currentParticipant.value.add(msg.value);\r\n        uint newTokens = currentParticipant.tokens.add(_numOfTokensRequested);\r\n\r\n        participant[_id][msg.sender] = Participant(newValue, newTokens, currentParticipant.whiteListed);\r\n        \r\n    }\r\n\r\n    function claimTokensOrARefund(uint _id) public isIDValid(_id) {\r\n        \r\n        Participant memory _participant = participant[_id][msg.sender];\r\n\r\n        PreSaleStatus _status = presaleInfo[_id].preSaleStatus;\r\n        uint totalBalance = preSaleTokenBalanceOfContract(_id);\r\n        require(_status == PreSaleStatus.succeed || _status == PreSaleStatus.failed, \"Presale is not concluded yet\");\r\n        \r\n        \r\n        if (_status == PreSaleStatus.succeed){\r\n            require(_participant.tokens > 0, \"No tokens to claim\");\r\n            require(_participant.tokens <= totalBalance, \"Not enough tokens are available\");\r\n            bool tokenDistribution = IERC20(presaleParticipationCriteria[_id].preSaleContractAddr).transfer(msg.sender, _participant.tokens);\r\n            require(tokenDistribution, \"Unable to transfer tokens to the participant\");\r\n            participant[_id][msg.sender] = Participant(0, 0, _participant.whiteListed);\r\n            presalectCounts[_id].claimsCount++;\r\n        }\r\n        else if(_status == PreSaleStatus.failed){\r\n            require(_participant.value > 0, \"No amount to refund\");\r\n            bool refund = payable(msg.sender).send(_participant.value);\r\n            require(refund, \"Unable to refund amount to the participant\");\r\n            participant[_id][msg.sender] = Participant(0, 0, _participant.whiteListed);\r\n            presalectCounts[_id].claimsCount++;\r\n\r\n        }\r\n\r\n    }\r\n    \r\n    function endPresale(uint _id) public onlyPresaleOwner(_id) isIDValid(_id) returns (uint, uint, uint){\r\n        \r\n        require(presaleInfo[_id].preSaleStatus == PreSaleStatus.inProgress, \"Presale is not in progress\");\r\n\r\n        PresaleInfo memory info = presaleInfo[_id];\r\n\r\n        require(\r\n            block.timestamp > presaleParticipationCriteria[_id].presaleTimes.expiredAt ||\r\n            info.remainingTokensForSale == 0, \r\n            \"Presale is not over yet\"\r\n        );\r\n        \r\n        uint256 totalTokensSold = info.tokensForSale.sub(info.remainingTokensForSale);\r\n        \r\n        if( totalTokensSold >= presaleParticipationCriteria[_id].softCap ){\r\n            \r\n            uint256 tokensToAddLiquidity = totalTokensSold.mul(info.reservedTokensPCForLP).div(100);\r\n            \r\n                uint256 poolShareBNB = distributeRevenue(_id);\r\n\r\n                require(IERC20(info.preSaleContractAddr).approve(pancakeSwapRouterAddr, tokensToAddLiquidity), \"unable to approve token tranfer to pancakeSwapRouterAddr\");\r\n\r\n                (uint amountToken, uint amountETH, uint liquidity) = IPancakeRouter02(pancakeSwapRouterAddr).addLiquidityETH{value : poolShareBNB}(\r\n                    info.preSaleContractAddr,\r\n                    tokensToAddLiquidity,\r\n                    0,\r\n                    0,\r\n                    info.presaleOwnerAddr,\r\n                    block.timestamp + 5*60\r\n                );\r\n\r\n                internalData[_id].totalTokensSold = totalTokensSold;\r\n                internalData[_id].tokensAddedToLiquidity = tokensToAddLiquidity;\r\n                internalData[_id].extraTokens = info.remainingTokensForSale +  info.remainingTokensForSale.mul(info.reservedTokensPCForLP).div(100) ;\r\n                presaleInfo[_id].preSaleStatus = PreSaleStatus.succeed;\r\n\r\n                return (amountToken, amountETH, liquidity);\r\n            \r\n        }\r\n        else {\r\n\r\n            internalData[_id].extraTokens = info.tokensForSale +  info.tokensForSale.mul(info.reservedTokensPCForLP).div(100);\r\n            presaleInfo[_id].preSaleStatus = PreSaleStatus.failed;\r\n            // removeActiveSale(_id);\r\n            return (0,0,0);\r\n\r\n        }\r\n        \r\n    }\r\n\r\n    function distributeRevenue(uint _id) private returns (uint256) {\r\n\r\n        PresaleInfo memory info = presaleInfo[_id];\r\n\r\n        uint256 revenueFromPresale = info.accumulatedBalance;\r\n        require(revenueFromPresale > 0, \"No revenue to add liquidity\");\r\n\r\n        uint256 devTeamShareBNB = revenueFromPresale.mul(salesFeeInPercentForAProject[_id]).div(100);\r\n        uint256 poolShareBNB = revenueFromPresale.mul(info.reservedTokensPCForLP).div(100);\r\n        uint256 ownersShareBNB = revenueFromPresale.sub(poolShareBNB.add(devTeamShareBNB));\r\n\r\n        // require(payable(info.presaleOwnerAddr).send(ownersShareBNB), \"cannot send owner's share\");\r\n        payable(info.presaleOwnerAddr).transfer(ownersShareBNB);\r\n\r\n\r\n        uint devShare = devTeamShareBNB.mul(75).div(100);\r\n        // require(payable(devAddr).send(devShare), \"cannot send dev's share\"); \r\n        payable(devAddr).transfer(devShare);\r\n\r\n        uint teamShare = devTeamShareBNB.sub(devShare);\r\n        // require(payable(teamAddr).send(teamShare), \"cannot send devTeam's share\");\r\n        payable(teamAddr).transfer(teamShare);\r\n        \r\n        internalData[_id].revenueFromPresale = revenueFromPresale;\r\n        internalData[_id].poolShareBNB = poolShareBNB;\r\n        internalData[_id].devTeamShareBNB = devTeamShareBNB;\r\n        internalData[_id].ownersShareBNB = ownersShareBNB;\r\n\r\n        return  poolShareBNB;\r\n\r\n    }\r\n\r\n    function burnOrWithdrawTokens(uint _id, Withdrawtype _withdrawtype ) public onlyPresaleOwner(_id) isIDValid(_id){\r\n\r\n        require(internalData[_id].extraTokens > 0, \"No tokens to withdraw\");\r\n\r\n        PresaleInfo memory info = presaleInfo[_id];\r\n\r\n        // require( \r\n        //     info.remainingTokensForSale != 0 && info.remainingTokensForSale != 1, \"Can't withdraw before concluding the sales\"\r\n        //     );\r\n\r\n        IERC20 _token = IERC20(info.preSaleContractAddr);\r\n        uint totalTokens = _token.balanceOf(address(this));\r\n\r\n        require( totalTokens >= internalData[_id].extraTokens, \"Contract has no presale tokens\");\r\n\r\n        if(_withdrawtype == Withdrawtype.withdraw ){\r\n            bool tokenDistribution = _token.transfer(msg.sender, internalData[_id].extraTokens);\r\n            require( tokenDistribution, \"unable to send tokens to the owner\");\r\n            internalData[_id].extraTokens = 0;\r\n        }\r\n        else{\r\n            bool tokenDistribution = _token.transfer(0x000000000000000000000000000000000000dEaD , internalData[_id].extraTokens);\r\n            require( tokenDistribution, \"unable to send tokens to the owner\");\r\n            internalData[_id].extraTokens = 0;\r\n        }\r\n        // presaleInfo[_id].tokensForSale = 0;\r\n        // presaleInfo[_id].remainingTokensForSale = 0;\r\n        // // presaleInfo[_id].preSaleStatus = PreSaleStatus.consluded;\r\n    }\r\n\r\n    function BNBbalanceOfContract() public view returns(uint){\r\n        return address(this).balance;\r\n    }\r\n\r\n    function updatePresaleTime(uint _id, uint _starttime, uint _endTime) public onlyPresaleOwner(_id) isIDValid(_id){\r\n        \r\n        require(presaleInfo[_id].preSaleStatus == PreSaleStatus.pending, \"Presale is in progress, you can't change criteria now\");\r\n\r\n        presaleParticipationCriteria[_id].presaleTimes.startedAt = _starttime;\r\n        presaleParticipationCriteria[_id].presaleTimes.expiredAt = _endTime;\r\n    }\r\n\r\n    function updateParticipationCriteria (\r\n            uint _id, uint _priceOfEachToken, uint _minTokensReq, uint _maxTokensReq, uint _softCap\r\n        ) public onlyPresaleOwner(_id) isIDValid(_id) {\r\n\r\n        require(presaleInfo[_id].preSaleStatus == PreSaleStatus.pending, \"Presale is in progress, you can't change criteria now\");\r\n        require( _softCap >= presaleInfo[_id].tokensForSale.div(2), \"softcap should be at least 50% of the total tokens offered on sale\");\r\n        \r\n        presaleInfo[_id].priceOfEachToken = _priceOfEachToken;\r\n        presaleParticipationCriteria[_id].reqestedTokens.minTokensReq = _minTokensReq;\r\n        presaleParticipationCriteria[_id].reqestedTokens.maxTokensReq = _maxTokensReq;\r\n        presaleParticipationCriteria[_id].softCap = _softCap;\r\n    }\r\n\r\n    function updateteamAddr(address _teamAddr) public onlyOwner {\r\n        teamAddr = _teamAddr;\r\n    }\r\n\r\n    // // Helping functions;\r\n    function preSaleTokenBalanceOfContract (uint _id) public view returns(uint256){\r\n        return IERC20(presaleParticipationCriteria[_id].preSaleContractAddr).balanceOf(address(this));\r\n    }\r\n    \r\n    function preSaleTokenBalanceOfUser (uint _id) public view returns(uint256){       \r\n        return IERC20(presaleInfo[_id].preSaleContractAddr).balanceOf(address(msg.sender));\r\n    }\r\n\r\n    function criteriaTokenBalanceOfUser(uint _id) public view returns (uint){\r\n        return IERC20(presaleParticipationCriteria[_id].criteriaTokenAddr).balanceOf(address(msg.sender));\r\n    }\r\n\r\n}\r\n\r\n    // function updateTokensForSale( uint _id, uint _tokensForSale, uint _reservedTokensPCForLP ) public onlyPresaleOwner(_id) isIDValid(_id) {\r\n    //     presaleInfo[_id].tokensForSale = _tokensForSale;\r\n    //     presaleInfo[_id].remainingTokensForSale = _tokensForSale;\r\n    //     presaleInfo[_id].reservedTokensPCForLP = _reservedTokensPCForLP;\r\n    // }\r\n\r\n    // function setCriteriaToken(\r\n    //     uint _id, \r\n    //     address _criteriaToken, \r\n    //     uint _minTokensForParticipation\r\n    // ) public onlyPresaleOwner(_id) {\r\n    //     presaleParticipationCriteria[_id].minTokensForParticipation = _minTokensForParticipation;\r\n    //     presaleParticipationCriteria[_id].criteriaTokenAddr = _criteriaToken;\r\n    // }\r\n\r\n\r\n    // function pausePresale(uint _id) public onlyPresaleOwner(_id) isIDValid(_id) {\r\n    //     presaleInfo[_id].preSaleStatus = PreSaleStatus.paused;\r\n    // }\r\n    \r\n    // function unpausePresale(uint _id) public onlyPresaleOwner(_id) isIDValid(_id) {\r\n    //     presaleInfo[_id].preSaleStatus = PreSaleStatus.inProgress;\r\n    // }",
  "sourcePath": "D:\\Fiverr\\PreSaleDApp\\pre-sale-dapp\\Contract\\contracts\\Presale.sol",
  "compiler": {
    "name": "solc",
    "version": "0.8.11+commit.d7f03943.Emscripten.clang"
  },
  "schemaVersion": "3.4.3",
  "updatedAt": "2021-12-25T19:47:07.958Z",
  "devdoc": {
    "kind": "dev",
    "methods": {
      "owner()": {
        "details": "Returns the address of the current owner."
      },
      "renounceOwnership()": {
        "details": "Leaves the contract without owner. It will not be possible to call `onlyOwner` functions anymore. Can only be called by the current owner. NOTE: Renouncing ownership will leave the contract without an owner, thereby removing any functionality that is only available to the owner."
      },
      "transferOwnership(address)": {
        "details": "Transfers ownership of the contract to a new account (`newOwner`). Can only be called by the current owner."
      }
    },
    "version": 1
  },
  "userdoc": {
    "kind": "user",
    "methods": {},
    "version": 1
  }
}